:040000006F206023EA
:100004000000000000000000680200007002000010
:100014000000000034220000000000000000000086
:100024003422000034220000000000000000000020
:100034003422000000000000342200000000000010
:100044003422000034220000342200003422000054
:100054003422000034220000342200003422000044
:100064003422000034220000342200003422000034
:100074003422000034220000342200003422000024
:100084003422000034220000342200003422000014
:100094003422000034220000342200003422000004
:1000A40034220000342200003422000034220000F4
:1000B40034220000C616000034220000342200005E
:1000C40034220000342200003422000034220000D4
:1000D40034220000342200001A18000034220000E8
:1000E40034220000342200003422000034220000B4
:1000F40034220000342200003422000034220000A4
:1001040000000000342200003422000034220000E9
:100114003422000034220000342200003422000083
:100124003422000034220000342200003422000073
:100134003422000034220000342200003422000063
:100144003422000034220000342200008206000021
:100154003422000034220000342200003422000043
:100164003422000034220000342200003422000033
:100174003422000034220000342200003422000023
:100184003422000034220000342200003422000013
:100194003422000034220000342200003422000003
:1001A400000000000000000000000000000000004B
:0C01B4000000000000000000000000003F
:1001C0003D432A876373C3029377F700BDEFADE524
:1001D000937606FF3D8ABA960CC34CC30CC74CC736
:1001E0004107E36BD7FE11E28280B306C3408A0663
:1001F0009702000096966780A6002307B700A30623
:10020000B7002306B700A305B7002305B700A30472
:10021000B7002304B700A303B7002303B700A3026A
:10022000B7002302B700A301B7002301B700A30062
:10023000B7002300B700828093F5F50F93968500F1
:10024000D58D93960501D58D61B7939627009702BA
:10025000000096968682E78086FA9680C1171D8FE9
:100260003E96E374C3F8A5B7411122C6000801A069
:10027000411122C60008B7E700E03707EFBE1307B9
:100280000708B8C701A0411106C622C400080545E9
:10029000EF2090460145EF20B03A0545EF2090361B
:1002A0000545EF20B03D0545EF20104185458567A8
:1002B00013850780EF20F02785450565EF2070271F
:1002C0000100B240224441018280011122CE00107F
:1002D000B707005013070004D8A7B707005011470D
:1002E000D8B7B70700501387818798CBB70700505E
:1002F0001387818BD8CBB70700501387818F98CF96
:10030000B7070050A3890702B707005009472389A0
:10031000E702B70700500947238BE702B7070050F1
:100320000947238DE702A30704FE29A80347F4FE2B
:1003300093878183BA97238007008347F4FE85075C
:10034000A307F4FE0347F4FE9D47E3F1E7FE010037
:10035000724405618280797106D622D40018232E5A
:10036000A4FC8327C4FDA5C3B7070050194798A371
:100370002945EF302039B707005023800700B137F7
:10038000B70700501D47B8A3B707005013079002E6
:1003900098A3B7070050130710F898B393073005D8
:1003A0002326F4FE8327C4FEFD8B0547B316F70012
:1003B00037E700E08327C4FE9583938707048A0705
:1003C000BA9794C391A0B7070050194798A329453D
:1003D000EF304033B7070050238007009307300504
:1003E0002324F4FE832784FEFD8B0547B316F70014
:1003F00037E700E0832784FE9583938707068A0703
:10040000BA9794C30F1000000100B2502254456106
:100410008280797106D622D40018AA87232CB4FCD6
:100420003687A30FF4FCB287231EF4FCBA87230F90
:10043000F4FC8347F4FD638D07220347F4FD9D47D9
:1004400063E8E7220347F4FD93878183BA979C23EF
:1004500093F7F70F639C07200347F4FD8547630775
:10046000F7000347F4FD91476313F702B707005005
:10047000B1079C23A307F4FE0347F4FD85476314EB
:10048000F7088347F4FE9183A307F4FEADA8034762
:10049000F4FD89476307F7000347F4FD8D476313B5
:1004A000F702B7070050B5079C23A307F4FE0347E4
:1004B000F4FD8D476319F7048347F4FE9183A30786
:1004C000F4FE91A00347F4FD95476307F700034747
:1004D000F4FD99476313F702B7070050B9079C234F
:1004E000A307F4FE0347F4FD9947631EF700834713
:1004F000F4FE9183A307F4FE39A0B7070050BD07AF
:100500009C23A307F4FE8347F4FE918B63840716B4
:100510008347F4FEA18BB1C38347F4FE858B8DCB5B
:100520008347F4FD13972700B707005093872703ED
:10053000BA979C2393F7F70F918B91C7930700FC11
:100540002307F4FEB9A0930700F82307F4FE91A057
:10055000930700042307F4FE2DA88347F4FE858B40
:100560009DC78347F4FD13972700B7070050938773
:100570002703BA979C2393F7F70F918B91C79307A3
:1005800000042307F4FE31A0230704FE19A023076B
:1005900004FE8347E4FEA1EB8347E4FD85E3832764
:1005A00084FD93960701C1820347F4FDB707001449
:1005B0009107BA978A07368798C3A9A80347F4FD1D
:1005C000B70700149107BA978A079843B707002026
:1005D000BA973E878357C4FD3E86832584FD3A85BE
:1005E000EF30603805A80347E4FE8346F4FDB70703
:1005F00000149107B6978A079C433E97B7070020DF
:10060000BA973E878357C4FD3E86832584FD3A858D
:10061000EF3060350347F4FD93878183BA97054730
:1006200098A30347F4FDB7070014B107BA978A07E8
:100630003E878357C4FD1EA38347F4FD139727000D
:10064000B707005093872703BA979C2393F7F70FB8
:100650000347F4FD931627003707005013072703BD
:100660003697F19B93F7F70F1CA329A0814729A088
:10067000814719A0010085473E85B250225445614B
:100680008280011122CE0010B7070050FC23A30581
:10069000F4FEB7070050FC332305F4FE8347B4FE95
:1006A000898BE38307228347A4FE93F7070341471F
:1006B000E386E72041476346F7006385071E6F0026
:1006C0001020130700026388E70013070003638DFF
:1006D000E7246F00D01E8347A4FE93F7F7031307A8
:1006E00010026389E71013072002638EE7141307D3
:1006F00000026393E71A83D7A182C207C18391E7FF
:10070000B70700501147A389E70283C7518293F7C7
:10071000F70F93F707066394071883C7418293F78F
:10072000F70F1547638AE70819476393E70C83D7E8
:10073000A1821397070141839307F00363E7E70062
:1007400083D7A182C207C18319A09307000423168F
:10075000F4FE83A701820357C4FE3A86BE85138543
:100760008187EF30402083D7A1821397070141830F
:100770008357C4FEB307F7401397070141832395BE
:10078000E18203A701828357C4FE3E9723A0E18242
:10079000B70700500357C4FE9ABBB707005083C782
:1007A000270313F7F70FB7070050134747001377D6
:1007B000F70F2389E70235A8B7070050BC3393F73A
:1007C000F70FE207E18793F707F81397870161872F
:1007D00083C7D18293F7F70FE207E187D98F139789
:1007E00087016187B70700501377F70FB8B311A0DF
:1007F000010075A0B707005083C7670393F7F70F91
:10080000E207E187F19BE207E18793E7270013976F
:1008100087016187B70700501377F70F238BE70233
:10082000B707005083C7670313F7F70FB7070050E8
:10083000134747001377F70F238BE70293878183D2
:10084000A3800700B1A8B707005083C7A70393F799
:10085000F70FE207E187F19BE207E18793E72700C3
:10086000139787016187B70700501377F70F238D20
:10087000E702B707005083C7A70313F7F70FB707BF
:100880000050134747001377F70F238DE702938734
:1008900081832381070029A001006F00500201001D
:1008A0006F00F0018347A4FE93F7F703A5EB83479E
:1008B000A4FE93F70704A1C783C7518293F7F70FEC
:1008C00093F707068DCF83C7518293F7F70F13F77E
:1008D0000706930700026311F70283C7418293F76B
:1008E000F70F3E87A547631BF70003C78187A38ADD
:1008F000E1842395018221A0010011A0010083D78A
:10090000A182C207C18391EFB70700502398070265
:10091000B707005011472389E70221A001006F00AB
:10092000007A01006F00A079B707005019472389AA
:10093000E702B70700501947A389E7029387818729
:100940009823A382E1829387818798332382E1826F
:1009500093878187F823FC33A207D98F1397070168
:1009600041832395E18293878187B823BC33A20713
:10097000D98F1397070141832393E182938781875E
:10098000D823DC33A207D98F13970701418323941F
:10099000E182231604FEA30704FE83C7518293F766
:1009A000F70F93F70706638A071683C7518293F7F9
:1009B000F70F13F7070693070002631BF76283C75D
:1009C000418293F7F70F2D476364F71413972700BD
:1009D00095679387C7D0BA979C43828783D78182D4
:1009E000C207C18389EF83D76182C207C183A18314
:1009F000C207C18313F7F70F2388E18239A583D794
:100A000081821397070141838547631FF70083D7CE
:100A10006182C207C183A183C207C18313F7F70FA5
:100A20009387018398B3D5A3FD57A307F4FEF1ABD9
:100A300083D78182C207C18391EB83D76182C207CA
:100A4000C18313F7F70F238AE182C1A383D7818281
:100A50001397070141838547631CF70083D76182A1
:100A6000C207C18313F7F70F9387418398B371AB24
:100A7000FD57A307F4FE51AB83D78182C207C18320
:100A800099EB83C7018313F7F70F238CE186854722
:100A90002316F4FE9DAB83D7818213970701418310
:100AA0008547631DF700938701839C3313F7F70F86
:100AB000238CE18685472316F4FE81ABFD57A307FF
:100AC000F4FEA1A383D78182C207C18399EB83C7B8
:100AD000418313F7F70F238CE18685472316F4FE35
:100AE0002DA383D781821397070141838547631D17
:100AF000F700938741839C3313F7F70F238CE1862C
:100B000085472316F4FE11A3FD57A307F4FEF5A9AC
:100B1000FD57A307F4FE0100CDA983C7418293F7D7
:100B2000F70F2D476362F74C13972700956793875C
:100B3000C7D3BA979C43828783D76182C207C18398
:100B4000A183C207C18393F7F70F13072002636ADB
:100B5000F7161397270095679387C7D6BA979C43D4
:100B600082871567130787DF23A0E182956783C714
:100B700087DF2316F4FE91AA15671307C7E023A0A9
:100B8000E18295679387C7E0BC23139707014183F0
:100B900095679387C7E0BC33C207C183A207C2072A
:100BA000C183BA972316F4FE0DA283D78182C207B0
:100BB000C18391EB15671307E7E123A0E182A54705
:100BC0002316F4FE19A283D781821397070141836C
:100BD0008547631BF7001567130777E323A0E182BE
:100BE000A5472316F4FED5A0FD57A307F4FEF1A8F0
:100BF00083D78182C207C18399EB1567130787E406
:100C000023A0E1829307E0032316F4FE7DA883D797
:100C100081821397070141838547631CF70015679D
:100C2000130787E823A0E182930740032316F4FE0D
:100C300069A8FD57A307F4FE49A883D76182C207BC
:100C4000C18393F7F70F05476387E70205476344BE
:100C5000F70089CB95A00947638AE7020D476382B5
:100C6000E70499A81387818123A0E18283C781814A
:100C70002316F4FEB1A015671307C7EB23A0E1828A
:100C8000956783C7C7EB2316F4FE1DA815671307E6
:100C9000C7EC23A0E182956783C7C7EC2316F4FE57
:100CA00005A01567130707EE23A0E182956783C7A8
:100CB00007EE2316F4FE29A0FD57A307F4FE01005A
:100CC00029A0FD57A307F4FE010083D7A182C20724
:100CD000C1830357C4FE6376F7000357C4FE239510
:100CE000E18283D7A1821397070141839307F00321
:100CF00063E7E70083D7A182C207C18319A09307E6
:100D000000042316F4FE83A701820357C4FE3A862B
:100D1000BE8513858187EF20104503A70182835785
:100D2000C4FE3E9723A0E182CDA483D76182C2078F
:100D3000C18313F7F70FA386E182C1AC83C7C182D9
:100D400013F7F70F238CE18683D7A182139707014E
:100D50004183854763F4E72A05472395E18279AC0F
:100D600083D76182C207C18313F7F70F2386E1821D
:100D70000547A387E18251AC83C7518293F7F70FF0
:100D8000FD8B85E783D76182C207C18313F7F70F15
:100D900085476317F72683C7E18293F7F70FF99B1F
:100DA00013F7F70F2387E182A1AC83C7518293F732
:100DB000F70F13F7F70189476319F70483D76182A7
:100DC000C207C18393F7F70FA9E783D78182C207D0
:100DD000C18393F7F70F130710086387E700130722
:100DE00020086389E70029A8B70700500947238B2B
:100DF000E7020DA0B70700500947238DE70219A8A5
:100E0000FD57A307F4FE010031A0FD57A307F4FE30
:100E1000C5AA0100F5A283C7518293F7F70FFD8B96
:100E2000A1E783D76182C207C18313F7F70F854714
:100E30006318F70295679387C7E0FC3393F70702BF
:100E400081CF83C7E18293F7F70F93E7170013F77A
:100E5000F70F2387E18255AAFD57A307F4FE75A279
:100E6000FD57A307F4FE55A283C7518293F7F70FEE
:100E700013F7F7018947631FF70683D76182C2071B
:100E8000C18393F7F70FBDE383D78182C207C18384
:100E900093F7F70F130710086387E700130720087D
:100EA0006382E7023DA8B707005083C7670313F7C3
:100EB000F70FB7070050136737001377F70F238B2F
:100EC000E7022DA8B707005083C7A70313F7F70F52
:100ED000B7070050136737001377F70F238DE7022A
:100EE00031A8FD57A307F4FE010009A8FD57A30789
:100EF000F4FE21AAFD57A307F4FE01AA39A2238C10
:100F0000018683D7A182139707014183854763FB3D
:100F1000E70E05472395E182F5A0238C0186938790
:100F20008187A380070083C7518293F7F70FFD8B5A
:100F300091EF83C7E18293F7F70F858B89C7094744
:100F4000238CE18671A0238C018659A083C751822E
:100F500093F7F70F13F7F70189476318F70683D75D
:100F60008182C207C18313F7F70F9307100863113B
:100F7000F702B707005083C7670393F7F70F13F71C
:100F800037008D476316F7040547238CE18689A057
:100F900083D78182C207C18313F7F70F9307200815
:100FA0006311F702B707005083C7A70393F7F70F42
:100FB00013F737008D47631DF7000547238CE18643
:100FC00001A8FD57A307F4FE21A0FD57A307F4FED7
:100FD00083D7A182139707014183894763F6E7020C
:100FE00009472395E1820DA0FD57A307F4FE31A820
:100FF000010021A8010011A8010001A8010031A0F1
:10100000010021A0010011A001000347F4FE930795
:10101000F00F631DF700B70700501D472389E70253
:10102000B70700501D47A389E70251A883C7518223
:1010300093F7F70FE207E18763DD070483D7A18207
:101040001397070141839307000463E7E70083D701
:10105000A182C207C18319A0930700042316F4FEDE
:1010600083D7A1821397070141838357C4FEB30737
:10107000F7401397070141832395E182B70700509A
:101080000357C4FE9ABBB707005011472389E702F4
:101090003DA083D7A182C207C18399EBB707005057
:1010A00023980702B707005011472389E70201A8D8
:1010B000B70700501147A389E70211A00100B70745
:1010C00000500947F8A369A88347B4FE858B85C7FC
:1010D00023860182A386018223870182A38701825E
:1010E000B7070050A3810700EFF02F9EB70700500D
:1010F0000547F8A3B5A08347B4FE918BA9CFB707E6
:1011000000501147F8A32945EF20C05FB7070050F2
:10111000DC3393F7F70F918B8DC783C7E18293F789
:10112000F70F93E7270013F7F70F2387E18283C7B1
:10113000E18213F7F70F8D476314F702EF10C00732
:1011400005A083C7E18293F7F70FF59B13F7F70F1D
:101150002387E18231A0B70700500347B4FEF8A30C
:1011600001007244056173002030411106C622C49B
:101170000008B70700509C3313F7F70FB70700506C
:10118000134747001377F70F98B32145EF20C05F4F
:10119000B70700509C3313F7F70FB70700501347FA
:1011A00047001377F70F98B30545EF20E05D010086
:1011B000B240224441018280411106C622C4000887
:1011C000A5220945EF10C05BEF20604FF167138542
:1011D0000720EF20A063B707002083A70708BE857C
:1011E00095671385C7BDEF203003EF10600DAA8708
:1011F000BE8595671385C7BEEF20100295671385DE
:10120000C7BFEF20B012F167138507203123956720
:101210001385C7C1EF209011EF00A074EF00207973
:101220009567138507C3EF207010EF00F048EF00BB
:10123000704D9567138547C4EF20500FB707002006
:1012400003A70708896793870771B357F702C20797
:10125000C183FD17C207C183BE850545C9269567B1
:10126000138587C5EF20900CEFF0EF810545EFF077
:101270008F8EEF00307083C7F18293F7F70FE5DFB1
:10128000EF00F00AEF00F034EF00705EE123E5B705
:10129000411106C622C40008B71702409843B71789
:1012A00002401367170098C3B7170240D443B7171B
:1012B00002403707FFF0758FD8C3B7170240944339
:1012C000B71702403707F7FE7D17758F98C3B7171A
:1012D00002409443B71702403707FCFF7D17758F14
:1012E00098C3B7170240D443B7170240370701FF2E
:1012F0007D17758FD8C3B71702409443B7170240C4
:10130000370700EC7D17758F98C3B7170240370772
:10131000FF0098C7B717024023A60702E92A010079
:10132000B240224441018280011122CE00102322CA
:1013300004FE232604FE232004FE232404FEB71704
:101340000240DC43B18B2322F4FE032744FE914785
:101350006304F702032744FEA1476308F7028327CB
:1013600044FE63900714B707002037177A0013076D
:10137000072023A0E70881A2B707002037177A00CB
:101380001307072023A0E7083DA2B7170240D84360
:10139000B7073C00F98F2326F4FEB7170240D84365
:1013A000C167F98F2320F4FE8327C4FEC983890710
:1013B0002326F4FE0327C4FE89476315F700C947B7
:1013C0002326F4FE0327C4FEBD476318F700B54784
:1013D0002326F4FE85472324F4FE0327C4FEC147D9
:1013E0006315F700BD472326F4FE0327C4FEC54757
:1013F0006315F700C1472326F4FE832704FEB1E3FB
:10140000B7470240938707809C43C18B91CF032746
:10141000C4FEB7177A00938707203307F702B70790
:10142000002023A0E708B1A80327C4FEB7173D009A
:10143000938707903307F702B707002023A0E70838
:1014400089A0B7170240D843B7070200F98F91CFA0
:101450000327C4FEB7173D00938707903307F702B1
:10146000B707002023A0E70829A80327C4FEB71761
:101470007A00938707203307F702B707002023A0DD
:10148000E708032784FE85476316F702B7070020A5
:1014900083A7070813D71700B707002023A0E70882
:1014A00011A8B707002037177A001307072023A0D9
:1014B000E70811A00100B7170240DC43918313F73E
:1014C000F700B707002093870700BA979C2393F78C
:1014D000F70F2322F4FEB707002003A7070883278E
:1014E00044FE3357F700B707002023A0E7080100A8
:1014F000724405618280411106C622C40008312071
:101500000100B240224441018280011122CE00102C
:10151000232604FE232404FEB71702409443B71782
:1015200002404167558F98C3B71702409843B707E9
:101530000200F98F2324F4FE8327C4FE85072326A7
:10154000F4FE832784FE91E70327C4FE8567E31D2D
:10155000F7FCB71702409843B7070200F98F89C715
:1015600085472324F4FE19A0232404FE032784FEC8
:1015700085476312F70A37170240B71702405843EE
:10158000D8C337170240B71702405843D8C3B7171C
:101590000240D843B717024013670740D8C3B717B4
:1015A0000240D443B71702403707C1FF7D17758F3C
:1015B000D8C3B7170240D443B717024037072900F2
:1015C000558FD8C3B71702409443B7170240370767
:1015D0000001558F98C30100B71702409843B70721
:1015E0000002F98FF5DBB7170240D843B717024066
:1015F000719BD8C3B7170240D843B717024013678F
:101600002700D8C30100B7170240DC4313F7C70017
:10161000A147E31AF7FE0100724405618280397127
:1016200006DE22DC8000AA872E872317F4FCBA8707
:101630002316F4FC232204FE232404FE231604FEB6
:10164000232E04FC232004FE85450945EF10207756
:101650008357E4FC2314F4FE8357C4FC2312F4FEE6
:10166000231504FE231304FE930744FEBE85B7072B
:10167000004013850740EF10100C05468545B7075D
:10168000004013850740EF10B02D9307D002230EC2
:10169000F4FC8547A30EF4FC8947230FF4FC85472F
:1016A0002320F4FE9307C4FD3E85EF10000F85450F
:1016B000B707004013850740EF1090250100F25056
:1016C000625421618280411122C600088545B70716
:1016D000004013850740EF10302FAA878DCB85453A
:1016E000B707004013850740EF10D0347526EF0090
:1016F000F00F83C7718593F7F70F91CB83C781856F
:1017000093F7F70F850713F7F70F238CE184010098
:1017100032444101730020305D7186C6A2C4800846
:10172000232EA4FA232204FE232404FE232604FEEF
:10173000232A04FC232C04FC232E04FC232004FE77
:10174000232604FC232804FC854537050200EF10FE
:10175000006785451145EF10206291472312F4FE82
:101760008D472324F4FEE1472326F4FE930744FE2D
:10177000BE85B717014013850780EF007052A1475F
:101780002312F4FE91472326F4FE930744FEBE8500
:10179000B717014013850780EF009050930760034F
:1017A0002306F4FC8547A306F4FC85472307F4FCD5
:1017B00085472328F4FC9307C4FC3E85EF00F07DA9
:1017C0008327C4FB232AF4FC231C04FC231D04FCF4
:1017D000231E04FC231004FEB147231FF4FC9307CF
:1017E00044FDBE85B747004013850740EF105027E2
:1017F000054693055052B747004013850740EF1048
:10180000F0468545B747004013850740EF109040EC
:101810000100B640264461618280411122C6000861
:1018200093055052B747004013850740EF10905979
:10183000AA8781CFB747004013850740EF101052A9
:10184000AA8713F7F70F238BE1840100324441018B
:1018500073002030011106CE22CC001083C7918581
:10186000B1EF83C7618513F7F70F91476307F7025D
:1018700083C7618513F7F70FE9476300F70283C752
:10188000618513F7F70FD9476309F70083C76185AF
:1018900013F7F70F9D476311F70C21468145138518
:1018A000C184EFE0FF9183C7618513F7F70F93873A
:1018B000C184B8A30547A38CE18479A803C79185A7
:1018C0008547631AF702854621469385C1840545FD
:1018D000EFE03FB4AA87A307F4FE0347F4FE854771
:1018E000631CF706238C01840547A38BE184094719
:1018F000A38CE18495A003C7918589476316F702FD
:1019000083C7818513F7F70F9307100363F6E70486
:10191000A38B0184214681451385C184EFE05F8A52
:101920000D47A38CE1840DA803C791858D476315EE
:10193000F702854621469385C1840545EFE07FADDA
:10194000AA87A307F4FE0347F4FE85476316F70052
:10195000238B0184A38C01840100F2406244056161
:101960008280011106CE22CC0010232204FE232403
:1019700004FE232604FE85452145EF10E03FFD7758
:101980002312F4FE930780042326F4FE8D472324BC
:10199000F4FE930744FEBE85B7170140138507C0C8
:1019A000EF0010300100F2406244056182800111B5
:1019B00006CE22CC0010232004FE232204FE232482
:1019C00004FE232604FE85450545EF10E03AB145A7
:1019D0000545EF00D05085672320F4FE9147232270
:1019E000F4FEB1472324F4FE85472326F4FE930733
:1019F00004FE3E85EF00500EB5450545EF00304E24
:101A000089672320F4FE91472322F4FEB147232463
:101A1000F4FE85472326F4FE930704FE3E85EF007F
:101A2000B00BB9450545EF00904B91672320F4FEBC
:101A300091472322F4FEB1472324F4FE8547232651
:101A4000F4FE930704FE3E85EF001009BD450545F1
:101A5000EF00F048A1672320F4FE91472322F4FE13
:101A6000B1472324F4FE85472326F4FE930704FEA2
:101A70003E85EF007006B707014093870740944307
:101A8000B7070140938707403D67558F98C3010012
:101A9000F240624405618280411106C622C426C21A
:101AA000000883D7A1858507139707014183239DEC
:101AB000E18403D7A185A947B377F702C207C183A1
:101AC00095EB239D018483D7C185BE84B717014060
:101AD000138507C0EF00F03EAA873E87BD67F98FE8
:101AE0006391F40405472384E18403D7C1852393DC
:101AF000E18005A803D7A1859547B377F702C20710
:101B0000C18385E3B7170140138507C0EF00703B21
:101B1000AA873E87FD77F98F139707014183239E9C
:101B2000E1840100B24022449244410182800111CB
:101B300006CE22CC001083C7818493F7F70F638110
:101B400007262384018483D761801397070141838B
:101B500083D78180C207C1836304F724B147A307F9
:101B6000F4FE05A483D7618013970701418383D7CF
:101B70008180C207C183B98FC207C1833E87834773
:101B8000F4FEB357F740858B6388071E83D76180C7
:101B9000C207C1833E878347F4FEB357F740858B66
:101BA000638A07140347F4FEB147631AF7028947B3
:101BB0002307F4FE39A80347E4FE9387C184BA974C
:101BC0009823E9476304F70C8347E4FE850723075E
:101BD000F4FE0347E4FE9D47E3FFE7FC7DA80347CF
:101BE000F4FEB547631AF70289472307F4FE39A8C4
:101BF0000347E4FE9387C184BA979823914763090A
:101C0000F7088347E4FE85072307F4FE0347E4FE55
:101C10009D47E3FFE7FC51A00347F4FEB947631A71
:101C2000F70289472307F4FE39A80347E4FE9387A8
:101C3000C184BA979823D947630EF7048347E4FE1B
:101C400085072307F4FE0347E4FE9D47E3FFE7FC17
:101C5000A9A00347F4FEBD476311F7048947230792
:101C6000F4FE39A80347E4FE9387C184BA9798230A
:101C70009D476303F7028347E4FE85072307F4FECD
:101C80000347E4FE9D47E3FFE7FC01A8010031A004
:101C9000010021A0010011A001000347E4FEA147BB
:101CA0006317F7009387C184A382070025A8034721
:101CB000E4FE9387C184B306F7008347E4FE1387ED
:101CC00017009387C184B305F7008347E4FE1D47DF
:101CD000B307F7403E863685EF10F0489387C184FE
:101CE000A383070083C7E185FD1713F7F70F238F41
:101CF000E18459A00347F4FEB147631CF70083C792
:101D0000E185138727009387C184BA97694798A311
:101D1000A9A80347F4FEB547631CF70083C7E18514
:101D2000138727009387C184BA97114798A335A8D2
:101D30000347F4FEB947631CF70083C7E1851387A7
:101D400027009387C184BA97594798A339A80347B6
:101D5000F4FEBD47631BF70083C7E18513872700A7
:101D60009387C184BA971D4798A383C7E1858507E8
:101D700013F7F70F238FE1848347F4FE8507A3074A
:101D8000F4FE0347F4FEBD47E3FEE7DC83D7618042
:101D90001397070141832394E1800547A38FE184D2
:101DA00083C7F18595C3854621469385C184054542
:101DB000EFE02FE6AA87A306F4FE0347D4FE85478B
:101DC0006314F700A38F01840100F24062440561AF
:101DD0008280411106C622C4000883C7518513F7CB
:101DE000F70F83C7418593F7F70F6302F70C83C79B
:101DF000518513F7F70F83C7418593F7F70FB98F15
:101E000093F7F70F858B95C383C7518593F7F70F2A
:101E1000858B99C79567138587C6EF10305131A020
:101E20009567138507C8EF10705083C7518513F766
:101E3000F70F83C7418593F7F70FB98F93F7F70F24
:101E4000898B95C383C7518593F7F70F898B99C702
:101E50009567138587C9EF10704D31A0956713857D
:101E600007CBEF10B04C83C7518513F7F70F83C72B
:101E7000418593F7F70FB98F93F7F70F918B95C3C0
:101E800083C7518593F7F70F918B99C79567138592
:101E900087CCEF10B04931A09567138507CEEF10BE
:101EA000F04883C7518513F7F70F238AE1840100B7
:101EB000B240224441018280011106CE22CC0010A2
:101EC000232204FE232404FE232604FE8545114517
:101ED000EF00906A9307000F2312F4FE930780042B
:101EE0002326F4FE8D472324F4FE930744FEBE858B
:101EF000B71701401385078065230100F240624453
:101F000005618280011106CE22CC0010232004FE40
:101F1000232204FE232404FE232604FE85450545D2
:101F2000EF00906591450145EF00607BC14723209C
:101F3000F4FE91472322F4FEB1472324F4FE8547A3
:101F40002326F4FE930704FE3E8579269545014538
:101F5000EF00E078930700022320F4FE914723224C
:101F6000F4FEB1472324F4FE85472326F4FE9307AD
:101F700004FE3E85952699450145EF00407693077E
:101F800000042320F4FE91472322F4FEB1472324CA
:101F9000F4FE85472326F4FE930704FE3E852D2E8E
:101FA0009D450145EF00A073930700082320F4FE30
:101FB00091472322F4FEB1472324F4FE85472326CC
:101FC000F4FE930704FE3E85012EB7070140938778
:101FD00007409843B7070140938707401367070FEF
:101FE00098C30100F240624405618280411106C637
:101FF00022C426C2000883D70186850713970701EC
:1020000041832390E18603D70186854763FBE7027E
:102010002390018683D72186BE84B717014013859C
:1020200007804525AA8793F7070F639CF40203D71F
:102030002186B70700202392E70805472380E18423
:102040000DA083D7018691CFB71701401385078074
:102050008D2DAA8793F7070F1397070141832391CB
:10206000E1860100B2402244924441018280011184
:1020700006CE22CC001083C7018493F7F70FF1C37B
:10208000238001841146814513854184EFE04F93FD
:102090009147A307F4FE4DA0B707002083D7470858
:1020A000C207C1833E878347F4FEB357F740858B51
:1020B000BDEF0347F4FE9147631CF700938741840B
:1020C0009C33890713F7F70F9387418498B3A9A826
:1020D0000347F4FE9547631CF700938741849C33C4
:1020E000F91713F7F70F9387418498B335A803477F
:1020F000F4FE9947631CF70093874184BC2389074A
:1021000013F7F70F93874184B8A339A80347F4FE68
:102110009D47631BF70093874184BC23F91713F78E
:10212000F70F93874184B8A305472382E18683474D
:10213000F4FE8507A307F4FE0347F4FE9D47E3FD85
:10214000E7F483C7418695C385461146938541844C
:102150000945EFE00FACAA872307F4FE0347E4FE2E
:1021600085476314F700238201860100F240624430
:1021700005618280011106CE22CC0010232004FECE
:10218000232204FE232404FE232604FEB7070400B2
:102190002320F4FE91472322F4FEA1472324F4FEDA
:1021A00085472326F4FE930704FE3E853522010071
:1021B000F240624405618280411106C622C40008D3
:1021C00095671385C7CFEF1070169307800873B01B
:1021D00007800F1000003D6565241305000F4D2496
:1021E000894505455925EFF0AF8AEFF0EF93EFE011
:1021F0008F893D65912CAA8791C73D655124EFE0F9
:10220000DFF619A81305000F8124AA8791C71305CB
:10221000000FBD24EFE07FF59307800873A00780CF
:102220009567138547D0EF1070100100B24022442B
:102230004101828001A097E1FF1F9381A164176192
:102240000020130121DC173500001305E5D497E5C4
:10225000FF1F938525DB1386018263FAC500832265
:10226000050023A0550011059105E3EAC5FE13857D
:1022700001829385C1936377B50023200500110582
:10228000E36DB5FEFD42739002BCAD427390428097
:10229000B7620000938282087390023097E2FFFFDA
:1022A000938282D693E2320073905230EFE05FFE69
:1022B00097F2FFFF938282F0739012347300203004
:1022C000411122C60008B7F7FF1F938747709C4350
:1022D0003E85324441018280797122D60018232E36
:1022E000A4FC232604FEB70701409387074023265A
:1022F000F4FE8327C4FDDC4763800712B707014063
:102300009387074094438327C4FD9C4313C7F7FF7B
:10231000B707014093870740758F98C3B7070140FF
:1023200093870740D4438327C4FD9C4313C7F7FF1B
:10233000B707014093870740758FD8C38327C4FD33
:10234000DC430327C4FEBA972326F4FE8327C4FE8A
:1023500094438327C4FD98438327C4FE558F98C3B5
:10236000B70701409387074094478327C4FD9C43E8
:1023700013C7F7FFB707014093870740758F98C7CA
:10238000B707014093870740D4478327C4FD9C4388
:1023900013C7F7FFB707014093870740758FD8C76A
:1023A0008327C4FD9847C147631FF702B707014061
:1023B0009387074094478327C4FD9843B70701409C
:1023C00093870740558F98C7B70701409387074009
:1023D000D4478327C4FD9843B7070140938707403C
:1023E000558FD8C7B1A8B707014093870740232668
:1023F000F4FE8327C4FD9C470327C4FEBA97232617
:10240000F4FE8327C4FE94438327C4FD98438327A7
:10241000C4FE558F98C32DA08327C4FDDC4303273A
:10242000C4FEBA972326F4FE8327C4FE9443832771
:10243000C4FD9C4313C7F7FF8327C4FE758F98C361
:102440000100325445618280797122D60018232E12
:10245000A4FC232604FEB707014093870740D84B0E
:102460008327C4FDF98F89C785472326F4FE19A069
:10247000232604FE8327C4FE3E85325445618280B4
:10248000011122CE00102326A4FEB7070140938736
:1024900007400327C4FED8CB010072440561828047
:1024A000397122DE80002326A4FC2324B4FC2326D9
:1024B00004FE232004FE232404FE232E04FC2322F6
:1024C00004FE232C04FC832784FC9C47BD8B23261D
:1024D000F4FE832784FC9C47C18B89CB832784FC33
:1024E000DC430327C4FED98F2326F4FE832784FC14
:1024F0009E2393F7F70FE9CF8327C4FC9C43232245
:10250000F4FE232404FE5DA8832784FE0547B31749
:10251000F700232EF4FC832784FC9E233E87832729
:10252000C4FDF98F2320F4FE032704FE8327C4FD96
:102530006311F708832784FE8A07232EF4FC832780
:10254000C4FD3D47B317F700232CF4FC832784FD1B
:1025500093C7F7FF032744FEF98F2322F4FE832756
:10256000C4FD0327C4FEB317F700032744FED98F29
:102570002322F4FE832784FC984793078002631B81
:10258000F700832784FE05473317F7008327C4FC31
:10259000D8CB05A0832784FC984793078004631A4F
:1025A000F700832784FE05473317F7008327C4FC11
:1025B00098CB832784FE85072324F4FE032784FE1B
:1025C0009D47E3F3E7F48327C4FC032744FE98C345
:1025D000832784FC9A239307F00F63F0E70E832789
:1025E000C4FCDC432322F4FE232404FE6DA88327CD
:1025F00084FEA1070547B317F700232EF4FC8327B9
:1026000084FC9E233E878327C4FDF98F2320F4FE9C
:10261000032704FE8327C4FD6312F708832784FE83
:102620008A07232EF4FC8327C4FD3D47B317F70028
:10263000232CF4FC832784FD93C7F7FF032744FE74
:10264000F98F2322F4FE8327C4FD0327C4FEB317AA
:10265000F700032744FED98F2322F4FE832784FC4E
:10266000984793078002631BF700832784FEA10726
:1026700005473317F7008327C4FCD8CB832784FC96
:10268000984793078004631BF700832784FEA10704
:1026900005473317F7008327C4FC98CB832784FEB4
:1026A00085072324F4FE032784FE9D47E3F1E7F426
:1026B0008327C4FC032744FED8C301007254216160
:1026C0008280011122CE00102326A4FE8327C4FE9F
:1026D0009C47C207C1833E8572440561828079713F
:1026E00022D60018AA872E87A30FF4FCBA87230FDF
:1026F000F4FC232604FE8347E4FD8D8B8A073D47C7
:10270000B317F7002326F4FE370701408347E4FDA3
:10271000898393F7F70F8A07BA9798478327C4FEF0
:1027200093C7F7FFB70601400346E4FD098213761D
:10273000F60F7D8F93172600B69798C7370701408D
:102740008347E4FD898393F7F70F8A07BA97984781
:102750008346F4FD8347E4FD8D8B8A07B397F6002B
:10276000B70601400346E4FD09821376F60F5D8F3C
:1027700093172600B69798C70100325445618280AE
:10278000011122CE00102326A4FE0327C4FE23A499
:10279000E1860100724405618280797122D60018B9
:1027A000232EA4FC03A781868947631BF704832794
:1027B000C4FD98338D4763E5E7048327C4FD9C235C
:1027C000BE868327C4FD9C339A07139787016187D0
:1027D0008327C4FDBC239607E207E187D98FE20770
:1027E000E18793F7F70F2326D4FEA305F4FE37E71E
:1027F00000E08327C4FEBA970347B4FE2380E74076
:102800008327C4FDDC439DC78327C4FD9C2323226B
:10281000F4FE832744FEFD8B0547B316F70037E728
:1028200000E0832744FE9583938707048A07BA97BD
:1028300094C305A88327C4FD9C232320F4FE83278B
:1028400004FEFD8B0547B316F70037E700E083274A
:1028500004FE9583938707068A07BA9794C30F10DF
:1028600000000100325445618280797122D600183F
:10287000232EA4FCAE87A30DF4FC232604FEB77719
:1028800000409C432326F4FE8327C4FEF19B2326AD
:10289000F4FE0327C4FE8327C4FDD98F2326F4FE4C
:1028A000B77700400327C4FE98C337E700E0856789
:1028B000BA9783A707D1B7E600E013E7470085671B
:1028C000B69723A8E7D00347B4FD85476313F70203
:1028D00037E700E08567BA9783A707D1B7E600E03E
:1028E00013F777FF8567B69723A8E7D073005010DA
:1028F00051A837E700E08567BA9783A707D123245B
:10290000F4FE37E700E08567BA9783A707D1B7E6FB
:1029100000E013E787028567B69723A8E7D037E77B
:1029200000E08567BA9783A707D113F7F7FD8327E0
:1029300084FE93F70702B7E600E05D8F8567B697E0
:1029400023A8E7D037E700E08567BA9783A707D1C8
:10295000B7E600E013E787008567B69723A8E7D0BE
:102960007300501037E700E08567BA9783A707D157
:10297000B7E600E013E787008567B69723A8E7D09E
:102980007300501037E700E08567BA9783A707D137
:10299000B7E600E013F7B7FF8567B69723A8E7D03F
:1029A0000100325445618280397122DE8000232685
:1029B000A4FC232204FE232604FE232004FE232E4F
:1029C00004FCA30504FEA30D04FCB7170240DC437E
:1029D000B18B2322F4FE032744FE91476303F702E1
:1029E000032744FEA1476306F702832744FE639D45
:1029F00007208327C4FC37177A001307072098C3E2
:102A000029AC8327C4FC37177A001307072098C323
:102A100029A4B7170240D843B7073C00F98F2326F3
:102A2000F4FEB7170240D843C167F98F2320F4FEA4
:102A30008327C4FEC98389072326F4FEB7F7FF1F47
:102A40009387C77098439167F98F91EB0327C4FE72
:102A5000C5476319F704C9472326F4FEA1A003273D
:102A6000C4FE89476315F700C9472326F4FE0327F0
:102A7000C4FEBD476318F700B5472326F4FE85471B
:102A8000A305F4FE0327C4FEC1476315F700BD4745
:102A90002326F4FE0327C4FEC5476315F700C1478C
:102AA0002326F4FE832704FEA1E3B7470240938761
:102AB00007809C43C18B89CF0327C4FEB7177A00D8
:102AC000938707203307F7028327C4FC98C339AAEA
:102AD0000327C4FEB7173D00938707903307F7021B
:102AE0008327C4FC98C319A2B7170240D857C167FF
:102AF000F98FE9C7B7170240DC579183BD8B850773
:102B000037177A00130707203357F7028327C4FCCF
:102B100098C3B7170240DC57A18393F7F70FBD8B1B
:102B2000A30DF4FC8347B4FD89EF8327C4FC9843CD
:102B3000BA878A07BA9713D717008327C4FC98C3AC
:102B400085A00347B4FD85476310F7028327C4FCC3
:102B50009843BA878607BA978E07BA9713D7170094
:102B60008327C4FC98C32DA80347B4FDBD47631E4B
:102B7000F7008327C4FC9843BA878A07BA978A0765
:102B80003E878327C4FC98C321A88327C4FC9C43A9
:102B90000347B4FD09073387E7028327C4FC98C3C2
:102BA0008327C4FC9843B7170240DC57BD8B8507C9
:102BB0003357F7028327C4FC98C339A8B7170240DC
:102BC000DC57BD8B850737177A001307072033576B
:102BD000F7028327C4FC98C38327C4FC9843832748
:102BE000C4FE3307F7028327C4FC98C30347B4FE2F
:102BF00085476313F7028327C4FC9C4313D7170050
:102C00008327C4FC98C309A88327C4FC37177A001C
:102C10001307072098C311A00100B7170240DC4337
:102C200093F7070F2322F4FE832744FE9183232288
:102C3000F4FEB707002013870701832744FEBA97E5
:102C40009C2393F7F70F232EF4FC8327C4FC9843AF
:102C50008327C4FD3357F7008327C4FCD8C3B717B5
:102C60000240DC4393F707702322F4FE832744FEDF
:102C7000A1832322F4FEB7070020138707018327CF
:102C800044FEBA979C2393F7F70F232EF4FC832777
:102C9000C4FCD8438327C4FD3357F7008327C4FC03
:102CA00098C7B7170240D843916793870780F98F79
:102CB0002322F4FE832744FEAD832322F4FEB707CC
:102CC000002013870701832744FEBA979C2393F7BC
:102CD000F70F232EF4FC8327C4FCD8438327C4FDBD
:102CE0003357F7008327C4FCD8C7B7170240D8432F
:102CF000B167F98F2322F4FE832744FEB983232290
:102D0000F4FE1387C180832744FEBA979C2393F770
:102D1000F70F232EF4FC8327C4FCD8478327C4FD78
:102D20003357F7028327C4FC98CB0100725421610A
:102D30008280011122CE00102326A4FE2324B4FE9B
:102D4000832784FE99CBB7170240D44BB7170240B4
:102D50000327C4FE558FD8CB21A8B7170240D44B08
:102D60008327C4FE13C7F7FFB7170240758FD8CB70
:102D70000100724405618280011122CE00102326D9
:102D8000A4FE2324B4FE832784FE99CBB717024008
:102D9000944FB71702400327C4FE558F98CF21A840
:102DA000B7170240944F8327C4FE13C7F7FFB71726
:102DB0000240758F98CF0100724405618280011135
:102DC00022CE00102326A4FE2324B4FE832784FEF3
:102DD00099CBB7170240D44FB71702400327C4FE60
:102DE000558FD8CF21A8B7170240D44F8327C4FEF0
:102DF00013C7F7FFB7170240758FD8CF0100724491
:102E000005618280011122CE00102326A4FEB7178F
:102E10000240D457B7170240370700F97D17758F66
:102E2000D8D7B7170240D4578327C4FE139787011A
:102E3000B7170240558FD8D70100724405618280D0
:102E4000011122CE00102326A4FEB7170240D4574A
:102E5000B7170240370700F87D17758FD8D7B71717
:102E60000240D4578327C4FE1397B701B717024017
:102E7000558FD8D70100724405618280011122CE9E
:102E800000102326A4FEB7170240D457B7170240FC
:102E9000370700D07D17758FD8D7B7170240D457A2
:102EA0008327C4FE1397C701B7170240558FD8D7A1
:102EB0000100724405618280011122CE0010232698
:102EC000A4FE8327C4FE99CBB7170240D457B71787
:102ED000024037070040558FD8D719A8B7170240CE
:102EE000D457B7170240370700C07D17758FD8D762
:102EF0000100724405618280011122CE0010232658
:102F0000A4FEB7170240D457B71702403707008016
:102F10001347F7FF758FD8D7B7170240D4578327C9
:102F2000C4FE1397F701B7170240558FD8D7010099
:102F3000724405618280797122D60018232EA4FC88
:102F4000232CB4FC231704FE232404FEB7F7FF1F31
:102F5000938747709C439183BD8B2324F4FE832782
:102F6000C4FD9E232317F4FE032784FE8D4763FBD5
:102F7000E704032784FEA14763E6E7040327C4FDB3
:102F8000B7370140938707C06308F7020327C4FDE2
:102F9000B7370140938707406300F7020327C4FD5A
:102FA000B7570140938707C06308F7000327C4FDA4
:102FB000B75701406318F7000357E4FE8967D98FBC
:102FC0002317F4FE0327C4FDB7370140938707C0DA
:102FD0006306F7060327C4FDB70700406300F70642
:102FE0000327C4FDB7070040938707406308F70431
:102FF0000327C4FDB7170040938707806300F704D9
:103000000327C4FDB7170040938707C06308F70282
:103010000327C4FDB7370140938707406300F702D9
:103020000327C4FDB7570140938707C06308F70023
:103030000327C4FDB75701406310F7028357E4FE2E
:1030400093F7F7F82317F4FE832784FDBA238357F9
:10305000E4FED98F2317F4FE0327C4FDB717004001
:103060006308F7020327C4FDB717004093870740A2
:103070006300F7028357E4FE93F7F7CF2317F4FEBC
:10308000832784FDFA238357E4FED98F2317F4FEA8
:103090008327C4FD0357E4FE9AA3832784FDDA2324
:1030A0008327C4FDDAB7832784FD9A238327C4FDD1
:1030B0009AB70327C4FDB7370140938707C0630859
:1030C000F7020327C4FDB737014093870740630029
:1030D000F7020327C4FDB7570140938707C0630871
:1030E000F7000327C4FDB7570140631BF700832790
:1030F00084FD9C271397070141838327C4FD9ABB56
:103100008327C4FD0547DAAB010032544561828054
:10311000011122CE00102326A4FE2324B4FE83270F
:1031200084FE99CF8327C4FE9E23C207C18393E701
:1031300017001397070141838327C4FE9AA329A888
:103140008327C4FE9E23C207C183F99B13970701FF
:1031500041838327C4FE9AA30100724405618280E3
:10316000011122CE00102326A4FEAE872322C4FE26
:103170002315F4FE832744FE8DC38327C4FEDE2778
:103180001397070141838357A4FED98F1397070133
:1031900041838327C4FEDAA725A08327C4FEDE2748
:1031A0001397070141838357A4FE93C7F7FFC20714
:1031B000C183F98F1397070141838327C4FEDAA7E0
:1031C0000100724405618280797122D60018232E95
:1031D000A4FCAE87231DF4FC232604FE231504FE65
:1031E000231404FE8327C4FD9E2B139707014183FC
:1031F0008357A4FDF98F2315F4FE8327C4FDDE2732
:103200001397070141838357A4FDF98F2314F4FE1C
:103210008357A4FE81CB835784FE89C78547232625
:10322000F4FE19A0232604FE8327C4FE3E853254F3
:1032300045618280011122CE00102326A4FEAE87B4
:103240002315F4FE8357A4FE93C7F7FF13970701D6
:1032500041838327C4FE9AAB0100724405618280DA
:103260005D7186C6A2C48008232EA4FA232CB4FA6A
:10327000232404FE232604FE232204FE232004FE2E
:10328000232E04FC8327C4FB232EF4FC8327C4FBDA
:103290009E2BC207C1832324F4FE032784FEB56757
:1032A000FD17F98F2324F4FE832784FBFE233E873A
:1032B000832784FED98F2324F4FE832784FE13976B
:1032C000070141838327C4FB9AAB8327C4FBDE2716
:1032D000C207C1832324F4FE032784FEBD679387BE
:1032E000379FF98F2324F4FE832784FBDA23832777
:1032F00084FB9E27D98F139707014183832784FB83
:10330000BE27D98FC207C1833E87832784FED98F0A
:103310002324F4FE832784FE139707014183832728
:10332000C4FBDAA78327C4FBDE2BC207C183232497
:10333000F4FE032784FEC1679387F7CFF98F232418
:10334000F4FE832784FBDE273E87832784FED98F04
:103350002324F4FE832784FE1397070141838327E8
:10336000C4FBDAAB930784FC3E85EFF0EFE3032761
:10337000C4FDB7470140938707806317F700832791
:1033800044FD2326F4FE29A0832704FD2326F4FE12
:103390000327C4FEBA878607BA978E073E9783270E
:1033A00084FB9C438A07B357F7022322F4FE0327CA
:1033B00044FE93074006B357F70292072324F4FE16
:1033C000832784FE13D7470093074006B307F7020D
:1033D000032744FEB307F7402320F4FE832704FEAF
:1033E00092071387270393074006B357F702BD8B55
:1033F000032784FED98F2324F4FE832784FE1397AA
:10340000070141838327C4FB9AA70100B6402644E5
:1034100061618280011122CE00102326A4FE2324A4
:10342000B4FE832784FE85C38327C4FEDE2713975B
:10343000070141838967D98F139707014183832748
:10344000C4FEDAA705A08327C4FEDE271397070171
:103450004183F977FD17F98F13970701418383277C
:10346000C4FEDAA70100724405618280797122D618
:103470000018232EA4FCAE87232AC4FC231DF4FCD1
:10348000232404FE232204FE232004FE232604FE1C
:103490008327C4FD2326F4FE8357A4FD93F7F70F7B
:1034A000958393F7F70F2324F4FE8357A4FDFD8B38
:1034B0002322F4FE832744FE0547B317F700232099
:1034C000F4FE032784FE85476318F7008327C4FEB4
:1034D000B1072326F4FE0DA0032784FE8947631855
:1034E000F7008327C4FEC1072326F4FE31A08327FB
:1034F000C4FED1072326F4FE832744FD99CB8327FE
:10350000C4FE94438327C4FE032704FE558F98C34B
:1035100021A88327C4FE9443832704FE13C7F7FF23
:103520008327C4FE758F98C30100325445618280A1
:10353000011122CE00102326A4FEAE872315F4FE2F
:103540008357A4FE93F7F71F13970701418383273F
:10355000C4FEDAA30100724405618280011122CE0B
:1035600000102326A4FE8327C4FEDE23C207C183E6
:1035700093F7F71FC207C1833E85724405618280BD
:10358000797122D60018232EA4FCAE87231DF4FCEB
:10359000232604FE8327C4FD9E231397070141833E
:1035A0008357A4FDF98FC207C18389C785472326A6
:1035B000F4FE19A0232604FE8327C4FE3E85325460
:1035C00045618280797122D60018232EA4FCAE8733
:1035D000231DF4FC232204FE232604FE232004FEE4
:1035E000232404FE8357A4FD93F7F70F958393F7E5
:1035F000F70F2320F4FE8357A4FDFD8B2326F4FE52
:103600008327C4FE0547B317F7002326F4FE0327DC
:1036100004FE8547631EF7008327C4FDDE27C2072B
:10362000C1833E878327C4FEF98F2326F4FE2DA88D
:10363000032704FE8947631EF7008327C4FD9E2BE2
:10364000C207C1833E878327C4FEF98F2326F4FE79
:1036500021A88327C4FDDE2BC207C1833E878327B1
:10366000C4FEF98F2326F4FE8357A4FDA183C2076D
:10367000C1832322F4FE832744FE0547B317F700D6
:103680002322F4FE8327C4FD9E23C207C1833E8705
:10369000832744FEF98F2322F4FE8327C4FE81CBC7
:1036A000832744FE89C785472324F4FE19A02324D9
:1036B00004FE832784FE3E85325445618280411199
:1036C00022C60008B707002003A70708B7177A002B
:1036D00093870720B357F70213F7F70F2386E18686
:1036E00083C7C1861397070141839307803EB307C1
:1036F000F7021397070141832397E18601003244C3
:1037000041018280797122D60018232EA4FC37F75C
:1037100000E0544337F700E0F99A54C303C7C18669
:10372000BA860327C4FD3307D7022326E4FE37F702
:1037300000E08326C4FEB68701481CCB232A07017C
:10374000B7F700E09843B7F700E01367070198C3A5
:10375000B7F700E09843B7F700E01367170298C384
:103760000100B7F700E0DC4313F717008547E31AC1
:10377000F7FEB7F700E09843B7F700E0799B98C3EE
:103780000100325445618280797122D60018232EBF
:10379000A4FC37F700E0544337F700E0F99A54C32C
:1037A00003D7E186BA860327C4FD3307D702232651
:1037B000E4FE37F700E08326C4FEB68701481CCB41
:1037C000232A0701B7F700E09843B7F700E0136733
:1037D000070198C3B7F700E09843B7F700E0136715
:1037E000170298C30100B7F700E0DC4313F7170096
:1037F0008547E31AF7FEB7F700E09843B7F700E014
:10380000799B98C30100325445618280397106DE8C
:1038100022DC80002326A4FC8545916713854700A0
:10382000EFF08FD5930700202312F4FE8D47232459
:10383000F4FEE1472326F4FE930744FEBE85B71746
:10384000014013850780EFE0BFC58327C4FC232A0E
:10385000F4FC231C04FC231D04FC231E04FC231085
:1038600004FEA147231FF4FC930744FDBE85B74720
:10387000014013850780EFF0BF9E8545B7470140A3
:1038800013850780EFF01FB90100F25062542161E7
:103890008280797106D622D40018232EA4FC232C12
:1038A000B4FC232AC4FC232604FE232604FE91A094
:1038B000010093050004B747014013850780EFF02E
:1038C0003FCCAA87FDD7832784FD13871700232CBD
:1038D000E4FC83870700C207C183BE85B747014068
:1038E00013850780EFF0DFC48327C4FE85072326F6
:1038F000F4FE0327C4FE832744FDE34BF7FA832736
:1039000044FD3E85B250225445618280011122CE91
:1039100000102326A4FE03A701818327C4FE3E973F
:103920009387C193636DF70003A701818327C4FECA
:103930003E97B78700209387078063F4E700FD5721
:1039400039A803A701818327C4FE3E9723A8E180FD
:1039500003A701818327C4FEB307F040BA973E85D1
:10396000724405618280B3C7A5008D8B3307C50003
:1039700081E78D4763EDC700AA87637EE508942140
:1039800085078505A38FD7FEE3EBE7FE828093765C
:103990003500AA8789CA942185078505A38FD7FE9C
:1039A00093F63700C5BF9376C7FF138606FE63F014
:1039B000C70683A3050083A2450083AF850003AF3C
:1039C000C50083AE050103AE450103A3850183A8AD
:1039D000C5019385450223A0770003A8C5FF23A254
:1039E000570023A4F70123A6E70123A8D70123AAA0
:1039F000C70123AC670023AE17019387470223AEAC
:103A000007FF75B790419107910523AEC7FEE3EB21
:103A1000D7FEE3E6E7F6828039713EDA2ED232D461
:103A200036D63AD842DC46DE9387418122CC8043A9
:103A300026CA06CEAA8409C41C4C99E32285F5291E
:103A40000C4454102686228536C6EF001013F2402F
:103A50006244D24421618280011126CA4AC806CE3E
:103A600022CC4EC652C4AA842E8901C51C4D91E3B6
:103A7000E9219C4C804499E32685C12197170000D9
:103A80009387C749631BF402C0405E24A18BB1C772
:103A90001C48A1C7FD59294A1C4483450900FD174C
:103AA000B1E91CC463DD07062286A945268561208D
:103AB000FD576308F502294535A097170000938745
:103AC000E7476314F4008044C9B797170000938751
:103AD000E742E31CF4FAC0444DBFA2852685112AB3
:103AE00055D97D55F2406244D2444249B249224AF6
:103AF000056182801CC4050963D70700184C63CA9E
:103B0000E700638845011C401387170018C08CA389
:103B100061B7228626850520E31035F9D9B71C4008
:103B20001387170018C0294798A371B7938741815D
:103B3000AA85884315B7011122CC26CA4AC806CEE9
:103B40004EC6AA842E89328401C51C4D91E3F52608
:103B5000971700009387873C6317F406C0401C4CFE
:103B60001CC45E24A18BC1C31C48B5CF1C480840AF
:103B70009379F90F1379F90F1D8D5C486346F500B1
:103B8000A2852685692C25E51C440505FD171CC466
:103B90001C401387170018C0238037015C486388D6
:103BA000A7005E24858B81CBA9476316F900A28507
:103BB0002685B5240DEDF24062444A85D24442493F
:103BC000B2490561828097170000938727376314F5
:103BD000F400804469B79717000093872732E310F9
:103BE000F4F8C044ADBFA2852685212041D17D597E
:103BF000D9B741119387418126C2844322C44AC068
:103C000006C62A892E8489C49C4C99E326853526CC
:103C10009717000093878730631BF402C040031797
:103C2000C40093170701C18393F68700ADEA93F6AA
:103C3000070195EEA5472320F900136707045AA44E
:103C40007D55B24022449244024941018280971737
:103C500000009387A72E6314F4008044C9B7971718
:103C600000009387A729E31CF4FAC0444DBF918B51
:103C70009DC34C5889C9930744046384F5004A8561
:103C8000192B232A04025E242322040093F7B7FD94
:103C90005EA41C481CC05E2493E787005EA41C48F9
:103CA00099EB5E241307002093F707286385E7004C
:103CB000A2854A8589295E2413F717001DC35C4835
:103CC00023240400B307F0401CCC1C480145B5FB7D
:103CD0008317C40013F707082DD793E707045EA4E2
:103CE00085B7898B014791E3584818C4F9BFDE2591
:103CF000011122CC26CA06CE4AC84EC613F7870049
:103D0000AA842E8479EBD841634DE000B841634A20
:103D1000E0000145F2406244D2444249B2490561A3
:103D2000828058547DD703A904009396370123A0BD
:103D3000040063DB060670485E24918B99C75C40E3
:103D40001D8E5C5899C33C401D8E5C540C508146BE
:103D500026858297FD575A24631DF5009440F54748
:103D600063E8D706B70740208507B3D7D700858B10
:103D7000A5C31C48232204001CC09317370163D835
:103D80000700FD576314F5009C4091E368C84C5848
:103D900023A02401BDDD930744046384F500268538
:103DA000DD2E232A0402B5B70C5001468546268530
:103DB0000297FD572A86E311F5F89C40B5DF754759
:103DC0006385E70059476393E70423A0240191B773
:103DD000136707045AA47D5535BF83A90501E38AFB
:103DE00009F203A905008D8B23A035013309394160
:103DF000014791E3D84918C4E35D20F11C540C50ED
:103E0000CA864E86268582976347A0005E2493E784
:103E100007045EA4C9B7AA993309A940F1BF9C4918
:103E2000A5C3011122CC06CE2A8411C51C4D81E701
:103E30002EC62122B245971700009387270E639C58
:103E4000F5004C408397C5009DC722856244F2402F
:103E500005616FF0DFE9971700009387270E6394E1
:103E6000F5000C44C5B79717000093872709E39B1B
:103E7000F5FC4C44C1BFF2406244014505618280BB
:103E800001458280411122C406C62A844EA572A52E
:103E900023200500232205002324050023220506F4
:103EA00023280500232A0500232C050021468145EF
:103EB0001305C505EFC0CFB097170000938727B251
:103EC0005CD097170000938747B41CD49717000065
:103ED000938727B85CD497170000938787BA00D0E0
:103EE0001CD8B2402244410182809705000093858E
:103EF00045F389AA411126C2130680069384F5FF73
:103F0000B384C4024AC02E8922C406C693854407DE
:103F10003D262A8401CD23200500232225013105D9
:103F200008C4138684068145EFC08FA92285B2405C
:103F3000224492440249410182801C4DA5E741116F
:103F400006C622C497070000938767FA1CD593879B
:103F5000C1819C432324050423260504232805044A
:103F60006314F50085471CCD2A84352848C0228576
:103F70001D2808C42285052848C4484001469145AB
:103F8000EFF05FF008440546A545EFF0BFEF484469
:103F90000946C945EFF01FEF85471CCCB2402244CB
:103FA00041018280828041119387C18126C284436E
:103FB0004AC006C69C4C22C42A8999E32685B53F8F
:103FC000938484048044DC40FD1763D607009C4042
:103FD000B9CF8440C5BF0317C40039E7C17785074F
:103FE00023220406232004002322040023240400A7
:103FF0005CC423280400232A0400232C0400214647
:1040000081451305C405EFC0AF9B232A0402232C6E
:10401000040223240404232604042285B2402244FB
:1040200092440249410182801304840671BF914584
:104030004A85EFF03FEC88C049FDB1472320F900E5
:104040000144E1BF797122D44AD052CC56CA5AC831
:104050005EC606D626D24ECE2A8AAE8A13048504C0
:104060000149054BFD5B09ECB25022544A8592543C
:104070000259F249624AD24A424BB24B45618280B0
:10408000044483294400FD1963D409000040E1BFC2
:10409000DE24637BFB008397E40063877701A685BA
:1040A0005285829A3369A90093848406E9BF197105
:1040B000A6DAAE848395E500A2DC86DE328463DB7B
:1040C0000500DE2423A0060093F7070885E7930781
:1040D00000401DA0300836C6EF003020B246E34253
:1040E00005FE7247BD67F98F7977BA9793B71700C6
:1040F0009CC2F1BF930700041CC0F6506654D6540E
:10410000014509618280DE25011122CC06CE26CA36
:104110004AC8898B2E8489CF930774041CC01CC89D
:1041200085475CC8F2406244D244424905618280BE
:1041300074003000AA84A53FA2452A892685012261
:1041400019E98317C40013F7072069FFF19B93E770
:1041500027005EA4D1B797070000938747D99CD466
:104160005E2408C008C893E707085EA4A2475CC89D
:10417000B24781CF8315E4002685EF00B01811C542
:104180005E24F19B93E717005EA45E243369F90077
:104190002316240141BFDDC183A7C5FF411122C4FD
:1041A00006C626C21384C5FF63D307003E94AA84C3
:1041B000EF00101C938701879C4381EF23220400AA
:1041C00023A881862244B2402685924441016F0093
:1041D000501A637EF40014403307D4006396E7005E
:1041E0009843DC43369718C05CC0D9BFBA87D84320
:1041F00019C3E37DE4FE94433386D700631F860032
:104200001040B29694C33386D700E31DC7FA10431B
:104210005843B29694C3D8C375B76375C400B14709
:104220009CC04DB71040B306C4006316D7001443BA
:104230005843B29614C058C0C0C369B782800111F8
:1042400026CA93843500F19806CE22CC4AC84EC6C1
:10425000A104B14763F3F404B14463E2B4042A89CE
:10426000EF0010119387018798433A8439E09387D0
:1042700041879C4391E781454A851D2F23AAA1864A
:10428000A6854A853527FD5963193507B14723208F
:10429000F9004A85EF00F00D29A0E3D004FCB147F6
:1042A0001CC10145F2406244D2444249B249056111
:1042B00082801C40858F63CF0702AD4663F6F6000F
:1042C0001CC03E9404C031A05C406313870223A845
:1042D000F1864A85EF00F0091305B4009307440006
:1042E00061993307F5405DDF3A94898F1CC05DBF4B
:1042F0005CC3C5B72287404095BF13043500719851
:10430000E30285FCB305A4404A855D25E31C35FB2B
:10431000B5BF1C46FD171CC663DA0700184E63C5FF
:10432000E700A9476394F5006FF0FF801C422E85DB
:104330001387170018C28CA38280011122CC26CAD1
:104340004AC84EC652C406CE2A89AE893284B30406
:10435000D6007D5A63149400014501A80C204E86B6
:104360004A85453F0504E31745FFF2406244D244C5
:104370004249B249224A05618280357122CD26CB5D
:104380004AC94EC706CF52C556C35AC1DEDEE2DC6B
:10439000E6DAAA89AE843289368409C51C4D99E3D0
:1043A000EFF0BFB997170000938747B76398F40CF5
:1043B00083A44900DE24A18BE5C79C48F5C393077D
:1043C0000002A304F1029307000302D22305F102C5
:1043D00022C6930B5002971A0000938A2AB8054C04
:1043E000294B4A841C2099C3639F770DB30C244149
:1043F000638E0C00E6864A86A6854E85EFF0FFF3B5
:10440000FD57630FF51C9256E69636D21C20638941
:10441000071CFD571309140002C802CE3ECA02CC85
:10442000A309010482D483450900154656852D272A
:1044300013041900C24751E913F7070109C713070D
:104440000002A309E10413F7870009C71307B002AC
:10445000A309E104834609001307A002638FE6065F
:10446000F2474A8481462546182093051400130715
:1044700007FD6377E60AB5CA3ECE85A89717000008
:104480009387C7AB6395F40083A4890025B797177A
:1044900000009387A7A6E39FF4F083A4C90019BF87
:1044A000A6854E85EFF0EFF419D97D55FA406A44A0
:1044B000DA444A49BA492A4A9A4A0A4BF65B665C88
:1044C000D65C0D618280050431BF3305554133153B
:1044D000AC00C98F3EC82289B9B73247930647005E
:1044E000184336C6634707023ACE18209307E00206
:1044F000631DF70418309307A002631BF702B2474D
:104500000904138747009C433AC663C107023ECAA9
:104510002DA83307E04093E727003ACE3EC8F1B715
:10452000B387670385462E84BA973DBFFD57C5B74D
:10453000050402CA814681472546182093051400C8
:10454000130707FD6374E606F9F20C200D461715F4
:104550000000130525A1092511CD971700009387A9
:1045600067A01D8D93070004B397A700424505047B
:104570005D8D2AC80C201946171500001305C59E2D
:10458000130914002304B102C12B35C197C7FFFFE3
:10459000938747A795E74247B2471377071009CF9C
:1045A00091073EC69257D2973ED225BDB387670387
:1045B00085462E84BA9751B79D07E19BA107D5B7D1
:1045C000780097060000938686D726860C084E85CD
:1045D00097000000E7000000FD572A8AE314F5FC6D
:1045E000DE2493F70704E39207EC1255C1B5780077
:1045F000970600009386A6D426860C084E85012ACD
:10460000E1BF797156CA9C49BA8A984522D426D20C
:104610004ECE52CC06D64AD05AC85EC6AA892E843F
:10462000B284368A63D3E700BA879CC00347340458
:1046300019C385079CC01C4093F7070281C79C40A3
:1046400089079CC00329040013796900631A0900D3
:10465000130B9401FD5B5C449840998F634CF90403
:104660001C408346340493F70702B336D000A5EB11
:1046700013063404D2854E85829AFD576303F504F0
:104680001C4011469840998B544481446397C7005D
:10469000B384E64063D3040081441C441848635447
:1046A000F700998FBE94014969047D5B63982405E6
:1046B000014509A885465A86D2854E85829A631E91
:1046C00075017D55B250225492540259F249624A02
:1046D000D24A424BB24B456182800509ADBF3307D8
:1046E000D40013060003A301C704034754049387AF
:1046F0001600A2978906A381E7049DBF85462286FE
:10470000D2854E85829AE30E65FB050945B779711E
:1047100022D426D24AD04ECE06D652CC56CA5AC839
:10472000B689942D930790063289AA842E84138625
:104730003504638DF60263E2D7069307800563862E
:10474000F61863EDD700638E062093073004638E5E
:10475000F60A930A24042301D404C9A0930730065F
:104760006385F60A93074006E395F6FE1C4008436E
:1047700093F6070893054500C5C61C410CC363D8D2
:1047800007001307D002B307F040A301E404970623
:1047900000009386E67D294765A89307000763829A
:1047A000F61663E5D7029307E0066389F6189307C8
:1047B000F006E390F6FA0C401C4313F80508138545
:1047C00047006307080608C39C4385A89307500762
:1047D000E383F6FE930780076389F6129307300799
:1047E000E399F6F61C43D04181459386470014C3F4
:1047F00083AA070056858D2601C53305554148C05B
:104800005C401CC8A301040461A81C43930A24044F
:10481000938647009C4314C32301F4048547D5B70E
:1048200093F607041C410CC3B9DAC207C18781BFE4
:1048300093F5050408C3C9D99E231307F0066387BF
:10484000E60E970600009386A6722947A30104048A
:104850004C400CC463C5050008406D9908C099E33D
:10486000B28A89CDB28AB3F5E702FD1AB6958C21DA
:104870002380BA00B3D5E70263F0E70CA147631EBB
:10488000F7001C40858B91CB58401C4863C7E7005C
:1048900093070003A38FFAFEFD1A3306564110C892
:1048A0004E87CA867000A2852685EFF09FD57D5A77
:1048B000631D450B7D55B250225492540259F24962
:1048C000624AD24A424B45618280A382D504970650
:1048D00000009386E6690C40084313F805081C4164
:1048E0001105630D080208C313F7150001C793E50E
:1048F00005020CC04147B9FB0C4093F5F5FD0CC017
:10490000B1B79C4193E707029CC193078007A302BC
:10491000F404970600009386E66675BF13F8050455
:1049200008C3E30308FCC207C1837DBF97060000EC
:1049300093860664214719BFAE8735B794411C435F
:10494000CC4913F80608138547006306080008C31E
:104950009C438CC339A008C393F606049C43F5DA44
:104960008EA323280400B28A25BF14485686CA8520
:1049700026858299E30045F51C40898B8DE7B24777
:104980004844E35AF5F23E853DB785465686CA85CA
:1049900026858299E30065F3050A5C443247998FC6
:1049A000E345FAFEE9BF014A930A94017D5BF5B73E
:1049B000411122C42A842E8523AC019206C6EFE061
:1049C000FFF4FD576317F500938781939C4391C3D0
:1049D0001CC0B240224441018280411122C42E8475
:1049E0008395E50006C67922634905007C48AA97AD
:1049F0007CC8B2402244410182805E247D777D17CD
:104A0000F98F5EA4FDB7DE25011122CC26CA4AC863
:104A10004EC606CE93F70710AA842E843289B68933
:104A200091C78395E5008946014609225E247D777A
:104A30007D17F98F5EA48315E4006244F240CE86B0
:104A40004A86B24942492685D244056125A84111CA
:104A500022C42E848395E50006C6C928FD575A2432
:104A6000631AF500FD77FD17F98F5EA4B24022446A
:104A7000410182808567D98F5EA468C8C5BF8395D0
:104A8000E50005A8411122C42A842E85B285368608
:104A900023AC019206C6EFE0DFDFFD576317F50098
:104AA000938781939C4391C31CC0B240224441012F
:104AB0008280411122C42A842E8523AC019206C62D
:104AC000C520FD576317F500938781939C4391C3DD
:104AD0001CC0B240224441018280411122C42A8478
:104AE0002E85B28523AC019206C6C920FD576317F7
:104AF000F500938781939C4391C31CC0B24022442C
:104B000041018280411122C42A842E8523AC019266
:104B100006C65D20FD576317F500938781939C437C
:104B200091C31CC0B240224441018280411122C481
:104B30002A842E85B285368623AC019206C659207A
:104B4000FD576317F500938781939C4391C31CC065
:104B5000B24022444101828093F5F50F2A966314F6
:104B6000C500014582801C21E38EB7FE0505C5BF47
:104B700082808280411122C42A842E85B2853686A5
:104B800023AC019206C6A920FD576317F500938751
:104B900081939C4391C31CC0B24022444101828056
:104BA0009307800523ACF1927D55828093078005A1
:104BB00023ACF1927D5582809307800523ACF1925E
:104BC000014582809307800523ACF1927D55828058
:104BD0009307800523ACF1927D55828053797374DD
:104BE000656D436C6B3A25640D0A0000436869707B
:104BF00049443A253038780D0A00000055534246A2
:104C00005320436F6D706F73697465204B4D204462
:104C1000657669636520546573740D005553415280
:104C2000543220496E6974204F4B210D0000000062
:104C30004B42205363616E20496E6974204F4B21B3
:104C40000D0000004D53205363616E20496E69745E
:104C5000204F4B210D00000054494D3320496E690F
:104C600074204F4B210D00005475726E206F6E2022
:104C7000746865204E554D204C45440D00000000E1
:104C80005475726E206F666620746865204E554DAF
:104C9000204C45440D0000005475726E206F6E204C
:104CA0007468652043415053204C45440D0000007A
:104CB0005475726E206F666620746865204341509B
:104CC00053204C45440D00005475726E206F6E20C9
:104CD000746865205343524F4C4C204C45440D00A2
:104CE0005475726E206F6666207468652053435257
:104CF0004F4C4C204C45440D00000000536C656542
:104D0000700D000057616B650D000000100B000076
:104D1000100B0000780A0000C40A0000100B00000D
:104D2000100B0000100B0000100B0000100B000017
:104D3000F40F0000DC090000300A00001A0F000028
:104D4000780D0000E80F0000160E0000E80F0000CC
:104D50002A0D0000380B0000E80F00003C0D000099
:104D6000600D0000FE0E0000F80F0000C20C0000F5
:104D7000620B0000780B00003A0C0000C20C00002F
:104D8000C20C0000C20C0000C20C0000C20C0000EB
:104D9000C20C0000C20C0000C20C0000C20C0000DB
:104DA000C20C0000C20C0000C20C0000C20C0000CB
:104DB000C20C0000C20C0000C20C0000C20C0000BB
:104DC000C20C0000C20C0000C20C0000C20C0000AB
:104DD000C20C0000C20C0000C20C0000C20C00009B
:104DE000C20C0000C20C0000C20C0000C20C00008B
:104DF000AA0B0000F00B00001201000200000040AE
:104E0000861A00FE000101020301000009023B00B6
:104E1000020100A032090400000103010100092180
:104E200011010001223E000705810308000A090460
:104E300001000103010200092110010001223400D8
:104E4000070582030800010005010906A101050705
:104E500019E029E7150025017501950881029501E2
:104E6000750881019503750105081901290391024F
:104E70009505750191019506750826FF000507192E
:104E80000029918100C0000005010902A10109016A
:104E9000A1000509190129031500250175019503D4
:104EA0008102750595018101050109300931093833
:104EB0001581257F750895038106C0C00E03770014
:104EC000630068002E0063006E00000012034300C0
:104ED00048003300320056003300300078000000F4
:104EE0001603300031003200330034003500360044
:104EF000370038003900000000000000000000000A
:104F000000000000000000000000000000000000A1
:104F10000000000000000000000000000000000091
:104F20000000000000000000000000000000000081
:104F30000000000000000000000000000000000071
:104F40000000000000000000000000000000000061
:104F50000000000000000000232D302B2000000086
:104F6000686C4C0065666745464700003031323357
:104F70003435363738394142434445460000000055
:104F800030313233343536373839616263646566BF
:044F9000000000001D
:104F940000000000000000000102030406070809E5
:104FA40000000000010203040102030406070809CB
:104FB40000000000184F0000384F0000F84E0000B9
:104FC40000000000000000000000000000000000DD
:104FD40000000000000000000000000000000000CD
:104FE40000000000000000000000000000000000BD
:104FF40000000000000000000000000000000000AD
:10500400000000000000000000000000000000009C
:1050140000D8B805F00000F000F000000204060813
:10502400BC0100202000002004030904200000200B
:00000001FF
