:040000006F30F03B32
:100004000000000000000000542F0000562F0000E4
:1000140000000000BC3B00000000000000000000E5
:10002400BC3B0000BC3B00000000000000000000DE
:10003400BC3B000000000000BC3B000000000000CE
:10004400BC3B0000BC3B0000BC3B0000BC3B0000D0
:10005400BC3B0000BC3B0000BC3B0000BC3B0000C0
:10006400BC3B0000BC3B0000BC3B0000BC3B0000B0
:10007400BC3B0000BC3B0000BC3B0000BC3B0000A0
:10008400BC3B0000BC3B0000BC3B0000BC3B000090
:10009400BC3B0000BC3B0000BC3B0000BC3B000080
:1000A400BC3B0000BC3B0000BC3B0000BC3B000070
:1000B400BC3B000092070000BC3B0000BC3B0000BE
:1000C400BC3B0000BC3B0000BC3B0000BC3B000050
:1000D400BC3B000046320000BC3B0000BC3B0000BF
:1000E400BC3B0000BC3B0000BC3B0000BC3B000030
:1000F400BC3B0000BC3B0000BC3B0000BC3B000020
:1001040000000000BC3B0000BC3B0000BC3B000006
:10011400BC3B0000BC3B0000BC3B0000BC3B0000FF
:10012400BC3B0000BC3B0000BC3B0000BC3B0000EF
:10013400BC3B0000BC3B0000BC3B0000BC3B0000DF
:10014400BC3B0000BC3B0000BC3B0000BC3B0000CF
:10015400BC3B000018380000BC3B0000BC3B000066
:10016400BC3B0000BC3B0000BC3B0000BC3B0000AF
:10017400BC3B0000BC3B0000BC3B0000BC3B00009F
:10018400BC3B0000BC3B0000BC3B0000BC3B00008F
:10019400BC3B0000BC3B0000BC3B0000BC3B00007F
:1001A400000000000000000000000000000000004B
:0C01B4000000000000000000000000003F
:1001C000397101436EC619A0397141536AC866CAB4
:1001D00062CC5ECE19A0397101535AD056D252D496
:1001E0004ED64AD826DA22DC06DE3301614082820E
:1001F00041114AC026C222C406C68282B24D4101C4
:10020000024D924C224CB24B4101024B924A224A7F
:10021000B2494101024992442244B24041018280E4
:100220003D432A876373C3029377F700BDEFADE5C3
:10023000937606FF3D8ABA960CC34CC30CC74CC7D5
:100240004107E36BD7FE11E28280B306C3408A0602
:100250009702000096966780A6002307B700A306C2
:10026000B7002306B700A305B7002305B700A30412
:10027000B7002304B700A303B7002303B700A3020A
:10028000B7002302B700A301B7002301B700A30002
:10029000B7002300B700828093F5F50F9396850091
:1002A000D58D93960501D58D61B79396270097025A
:1002B000000096968682E78086FA9680C1171D8F89
:1002C0003E96E374C3F8A5B7EFF29FF2B70700506C
:1002D00003C91189B716002098339C3383C6763042
:1002E0001583918305464111AA851379F900058B81
:1002F000858B638FC608D5C237660000130646B0EB
:100300003704005003485400834814000353640327
:100310003765000093D828001353A300137313000C
:100320001AC093F8180013781800130585B0EF4031
:1003300020134C301030763878207C3003588400FD
:1003400037650000130505B4EF40801183C531897E
:1003500003C6818983C6418903C7018983C711897F
:1003600083C8118903C5118903D86189198103D311
:10037000A18905892AC0376500001AC442C293D8F2
:1003800078004A881305C5B7EF40800D410159B583
:1003900037660000130686AFA5B737660000130660
:1003A00006B0B9BFAA880147014505439377F70F07
:1003B00063E3D7008280B307E600C207C18313D886
:1003C0003700E379B8FE4698034808009D8BB35781
:1003D000F840858B81C7B317E3005D8D0507F9B73A
:1003E000EFF21FE136849DCA753FFD4763EC87003D
:1003F0009307F4FFB357F540858B89C7854733943E
:100400008700018DE1776353F5006175A16763444F
:10041000F5001385F7FF42054185EDBB0145C9BFD6
:10042000894763F6C722A54763E3A7228D4763E0A8
:10043000B722EFF27FD95147930600053387E502D3
:100440009387C18E7971B2842E892A8A83CBC1C0E9
:10045000B306D502938AC18E9389C1C013840188E3
:100460003697BA97982303CC2700630D07146309C6
:100470000C149C3363987715A14CD14713070005E2
:10048000B307F90201453307EA02BA97D697F42376
:1004900089CAD223A6851385C1C0669642064182C9
:1004A0001137D14713070005B307F9021D8948B07A
:1004B00001453307EA02BA97D697B42789CA92272B
:1004C000A6851385C1C0669642064182113FD14779
:1004D00013070005B307F9020AA001453307EA0232
:1004E000BA97D697F42789CAD227A6851385C1C0A3
:1004F000669642064182ED35D14713070005B307E2
:10050000F9022AA001453307EA02BA97D697B42B1D
:1005100099CA922BA6851385C1C066964206418270
:10052000C1356205618548A0054685472386F18867
:100530007CA09387818898438146050798C3630D03
:100540000C00D145130500053309B902330AAA028C
:1005500052995699834619000D4783C7190003C85D
:1005600029006382E40E914583C839000147638402
:10057000B40003C74900154581456374950083C5E0
:100580005900194301456374930003C569000303CF
:1005900044002AC4376500001ACC034354002EC21D
:1005A0003AC01ACA031324005E87A6851AC803132B
:1005B0000400130505A91AC6EF30906A456189B198
:1005C000814C65BD154703C6290083C71900637AAE
:1005D000970405476397EB0483C539000567130744
:1005E00007F093968500F98E03C74900D18E91815B
:1005F00012074D8F9D8B2316D1020146B1468945C6
:1006000068102317E1025CB0E13B0AA0B146014645
:1006100089451305E102E9332AA0230204000146BB
:1006200029B7E2079316860113F77B00E187E1867D
:1006300058B01EA036A00D4781476384E40083872D
:1006400039005CA0E9BF8148014781451DBF828018
:10065000EFF21FBA1384C1881C208DC393840188D4
:10066000214693850188EF309054854723A00400EC
:100670002382040023830400230004003E8559BE26
:10068000371700208346473089471307473063FFF9
:10069000D70214338D47639BF6025C339306A01098
:1006A0008945B387D702B71600209386068AB69786
:1006B00090238146630CD6009387270403C507FC6B
:1006C000630CB504850693F6F60FEDB7743F8947C2
:1006D000014563F4D704834607028D47639FF60202
:1006E000834747021307A0100946B387E70237176D
:1006F00000201307078ABA97942301476394E60002
:10070000014582809387270483C507FC6386C50063
:1007100005071377F70FDDB70545828003A58188AC
:100720008280EFF2FFAC0111AA842E840945854531
:1007300002CA02CC231E010002C602C8EF30807E2E
:10074000E082370400404C0813050440E484231D74
:100750000100231B0100EF305007054685451305B6
:100760000440EF30F0169307D0127C8689475C87EF
:10077000680085473EC8EF30005A854513050440A0
:10078000EF309013B7E700E0096723A2E710056197
:1007900051B4411122C63704004085451305044079
:1007A00026C4EF3010141DC9854513050440EF30F1
:1007B000D0143717002013074730B7160020930EC8
:1007C000E70309430D4E254F9386068A9308A01030
:1007D0001C23636AF3007D07E31CD7FF3244A24465
:1007E00041017300203010335C336310C605B387BA
:1007F00017038145B69783C20700E38EB2FC83CF0F
:1008000087003E85014609A80348150205061376B0
:10081000F60F0508A30005030505E397CFFE850540
:1008200093F5F50F93872704C9BFE316E6FBB3875B
:10083000170383436700BA85B69703C627020506E8
:100840002381C7020146E388C3F8FC316372F304D5
:100850009C25639FC703DC250148B3871703B69720
:100860008423638704038027BE8F014509A883C2C0
:100870001F0205051375F50F8502A3805F02850F22
:10088000E317A4FE05081378F80F93872704D1BF58
:1008900005061376F60F99057DB711E9EFF25F951E
:1008A000B717002003C54730EF10B06EA5B213058F
:1008B000B00F828019E5EFF2BF932E85EF10F0752F
:1008C00091BA828011E9EFF2BF923715002013052B
:1008D0007530EF1090793DBA1305B00F828001EDAD
:1008E000EFF21F91371500209385C1001305853065
:1008F000EF20802A05B21305B00F828019EDEFF2C8
:100900003F8FB717002093874730C8230947B8A304
:100910008945EF2060396FF0FF8F1305B00F82809B
:1009200005E1EFF2FF8CB717002003C58730AE86D4
:10093000130600409385C1C0EF20202A6FF09F8DE1
:100940001305B00F82805821A1466305D700FC250E
:100950006395D700A1471CA282809D466304D700FF
:100960006394D7009D47C5BF8D466304D700639449
:10097000D7008D47CDB7A5466304D7006394D70051
:10098000A547D1BFFD57C1BF19E9EFF27F86B71761
:10099000002003C58730EF20C0346FF0BF871305F8
:1009A000B00F828001EDEFF2BF84AE87B2853E8545
:1009B0001386C1C0EF2060296FF0DF851305B00FEB
:1009C000828021E1EFF2DF823288130520043305B3
:1009D000A8021308A01036839308A301BE863A86A6
:1009E00033880503B7150020AA989385058A429598
:1009F0002E951A950835C298C695EF2040336FF0B2
:100A00007F811305B00F828029E1EFF26FFE3288FB
:100A1000130520043305A8021308A0103683930899
:100A20008303BE863A8633880503B7150020AA984B
:100A30009385058A42952E951A9503457502C298AD
:100A4000C695EF2040336FF0EFFC1305B00F8280A6
:100A500019E9EFF2EFF9B717002003C58730EF204F
:100A6000A02A6FF02FFB1305B00F8280EFF24FF535
:100A7000AA8437650000011113054586EF30902FD9
:100A8000FD47B387F40237190020130949300144A8
:100A9000938CC100138CC1C0938A1700CA9A3E99E7
:100AA00013054006EF30407F05041374F40F214511
:100AB00033158500EF30407E81452685E53B814931
:100AC000814D194D130A40062685ED3B19E5850D2C
:100AD00093FDFD0F6363BD1381498509C209054577
:100AE00093D90901EF30407BE39049FF99E43765E2
:100AF00000001305C586EFF02FFD9547E3F287FA56
:100B0000D9452E8505616FF06FEF3765000013053D
:100B1000858AEF30F01499E4376500001305458BA2
:100B2000EFF08FFA9547E3FD87F693055004D1BFA8
:100B3000B76900001385098CEF30D0231545EF30DD
:100B4000A075376500001305458CEF3070119305D3
:100B5000E1012685F133AA852DE99387C1C003CD34
:100B600057008147B88763E5E70413050A85EF302E
:100B700070205686E2851385C100F1338345190044
:100B8000376500001305458DEF30900D3765000087
:100B90001305458EEF30D00CEA852685F533AA85FE
:100BA00029E12AC61385098CEF30D01CB24591BFCC
:100BB0003307FC000C2313850D893EC6EF30500A25
:100BC000B2478507C207C18371BF376500001305AF
:100BD000858AEF30F0089547E3F487EC93057004BD
:100BE0000DB7376500001305858AEF30700795470C
:100BF000E3F887EA9305B00F29B799E43765000059
:100C000013058587EFF04FEC376500001305058865
:100C1000EF3010052685E131AA85E31805EE376A25
:100C200000008149494DD28DB3873C018C231305C7
:100C30000A898509EF30D002E398A9FF376A0000DE
:100C400013050A85EF3010133765000013058589F9
:100C5000EF30100126855D31AA85E30B05EC376581
:100C600000001305858AEF30A07F9547E3FA87E2FD
:100C70009305600479B5EFF20FD6FD47B307F5028F
:100C8000371A0020130A4A302A8BAE898144014466
:100C90001389C1C0B71A00203E9A83473900034721
:100CA0002900A207BA976356F41EB307890094334C
:100CB00009476397E6021307A0103387E902D4239C
:100CC000114693870A8ABA97637AD60090A3B3072E
:100CD00089009C233E9442044180C1B794A3C5BFC0
:100CE0001146E398C6FE6386D41AD0338D4663124C
:100CF000D618F023854663E9C614FC336366F714FF
:100D00006398D702130720041306A0103386C90284
:100D100093860A8A5A853387E402329736973CA332
:100D200083454A00014781462686EF20001019A01E
:100D3000E38AE7FCB30789009C231307A0103387DD
:100D4000E9023E949307200413031002034E290086
:100D5000420493880A8A418081460145B387F402A0
:100D6000914E154FBA971307500833886402C697FF
:100D70003387E9023A98330789001033630DD609A7
:100D8000637BC4090C232E9442044180631DE60753
:100D900050332C23834F4700220693F3F5007E96B1
:100DA000E2054206E18583423700418263D80502AD
:100DB0007823B38FA700B305A800238FEF009827EF
:100DC000A1058605C69505070505A3847F00A386B2
:100DD0005F00B2A198A71375F50F71BF3387D700D5
:100DE000A3037702A30557023307D800410706077C
:100DF000469712AB03C76702850693F6F60F050701
:100E00002383E7028DBFE31866F6102778332206A6
:100E1000518FDAA38DB785476394F60293072004B8
:100E20001306A010B387F40213870A8A3386C90217
:100E3000B297BA97B8236315D7007D572380E7048C
:100E4000850493F4F40F91BD930720049306A0103A
:100E5000B387F40213870A8AB386D902B697BA9782
:100E60007D57B8A3B30789009C233E944204418078
:100E7000C1BF13072004B384E4021307A010B717FF
:100E80000020B389E902A6999384078ACE94FD577E
:100E9000BCA001456FF06FB783C6C1C0954763978B
:100EA000F6181387C1C0143385476391F6183423AD
:100EB000A547639DF616343399476399F616930652
:100EC00020041308A01033080503B7180020138668
:100ED000088A011122CE26CC4ACA4EC852C656C430
:100EE000B386D5025AC25EC091470143814E014F7D
:100EF000014E9388088A1144C29636968353460061
:100F00000148930F00079304000893020009214948
:100F1000C149130A0002854A63E07704A147631AB6
:100F2000F30E930720041307A010B387F5023307CD
:100F3000E502BA97B385F80083C7050481E78547C2
:100F40002380F5047244E2445249C249324AA24A1B
:100F5000124B824B05618280B306F700942285070D
:100F6000C20793FBC60013FB3600C18393F6060F3E
:100F7000638D8B02638B2B0763950B026393560281
:100F800063010802B386EE03369342031353030151
:100F900063090E008346C60389E6230E5603A30E9B
:100FA000C603DA97C207C18385BF638BF60363EB81
:100FB000DF00E5FAB306F70003C80600611813382E
:100FC0001800C5B763899600E39D56FCB306F70089
:100FD00083CE0600F9B7B306F70003CE0600D1B7FB
:100FE000B306F70003CF06006DBF638C3601E39AAA
:100FF00046FBE30808FAB306F7009422A30FD602D3
:101000004DB7E30008FAB306F7009422230FD60287
:1010100049BF93072004B387F5029305A010330559
:10102000B502AA97C6972380070429BF8280EFF2F2
:101030002F999307A010338DF502371700209307DF
:10104000078A3571AAC6AE8BB2C802CC930D078A47
:10105000EA9703CA0700EAC2BECE63040A46F6470F
:101060009304200480239647330444411374F40FFF
:10107000B3049402A697EE97DE23638207169307C4
:101080004D00BE94EE94B76900001549E247A28571
:10109000850793F7F70F3ECCB757000013854770CD
:1010A000EF30003CC645364526879386C1C0228670
:1010B000EF107050AA85631D053E93042004B3040D
:1010C000940296470149B7690000BE94EE9429A89E
:1010D0009387C1C0CA978C230509138509894209E2
:1010E000EF30003813590901DE20E363F9FE37655C
:1010F000000013050585EF30E047A2855E85693B5A
:10110000B8208947631DF70CA54763EA770D8D4723
:1011100063E7870CDE201309810782DC3ECA7C016D
:10112000232209002324090023260900232809007B
:1011300002C702C902CB02CD02CF014B02D602CEBA
:10114000814902D2814A02D081440143938CC1C0BB
:10115000BECCD24763E9F4088347210899CF83477F
:10116000610881CF8347C10889EB85475146AC1898
:101170006801230CF106EF308023D14713050005E9
:101180003385AB0251466C01B307F402AA9713856D
:10119000C18E3E95EF30A0218347E1080346C10888
:1011A000814699C38346D1088357C10983584109B1
:1011B000034861093EC68347E109034721093755C2
:1011C00000003EC483578109A285130505723EC203
:1011D0008347A1093EC083570109EF3060287D1A7B
:1011E000137AFA0F9DBD33879C0018239387140050
:1011F000C2079306E00FC1836310D702D24613875C
:101200001700E35BD7F4E6979C238D04BE94C204D9
:10121000C180014B814935BF137637008D4663137A
:10122000D6001146BE85014581461378F50F6365EA
:10123000C80EB384C700C2048545C1806310B610D0
:10124000139C8601135C8C419376070F1146318BFA
:1012500003452108630FC7182146630AC720E31A14
:1012600007EE93070008639FF6169376FC0F93F73B
:101270001600D1EB83578108034CA108035F0108D6
:101280003EDC835741088352C1070347E1073ED83C
:1012900083476108918A01463ED493970A01C1832E
:1012A000BEC482C09A8702DE02DA014E814E814FAF
:1012B00081438140B6CA92559376F60F63E9B6082A
:1012C00063840000230FE10663840300231E51069C
:1012D00063840F002310E10963840E002301A10839
:1012E00063050E00C2572312F108D25781C7A257D7
:1012F0002303F108F25781C7E2572314F108864708
:1013000099C3230581099257B387FA029A971393D9
:10131000070113530301F5BDD24463FC95003388E4
:10132000BC00034808009318350033181801B3E6D1
:1013300006018505C205C1810505C5BD8945368CF7
:10134000E314B6F0139C0601135C0C41F5BD63F782
:101350003603B410B2968C22825625486391060556
:1013600005CF9D4663E6E60005071377F70F854036
:10137000A6460506B697C207C18335BF8145E30D72
:101380000BFC72483298C2883258E34718FDF24588
:10139000AE9693F5F60FC9B7BE828543F1B7825674
:1013A0000548E39706FDD646E1D693060003638021
:1013B000D502930610036381D50293068003E39957
:1013C000D5FA8546568C3EDCB6C036DE55B7568516
:1013D0003E8F854E854F69BF854656D43ED836DA56
:1013E000054E79B79386060693F6060DE39306D667
:1013F0000DB589E69377FC0F3ED0A1BB938706FF1E
:1014000093F7070EE38707D4930700076395F60069
:10141000937AFC0F3DBB930700086392F60419CD45
:101420008347610881CF8347C10889EB66458547BB
:101430005146CA85230CF106EF207077232009005E
:101440008547232209002324090023260900232895
:101450000900A30C8107230DF1060143DDB99307B1
:101460000009E398F6CE9377FC0F3ED2DDB18DE212
:101470003D47E36037CF93F7F70FE6979C231411AE
:1014800013871900B6992384F9FC9379F70FD1B12A
:10149000C1476397F6009377FC0F3ECE054B55B9D5
:1014A00093070002E397F6CA9377FC0F3ED6FDB789
:1014B0001385898AEF20D07AE247E379F9BC130AD1
:1014C000800452850D616FE07FD31307A0103305B0
:1014D000E5029387C1C0B033BC23B71600202206B3
:1014E0009386068A3E969385C1C081470943114879
:1014F000254E954E3695854863C4C70001458280C8
:101500003387F500034F07001433FA97C207C183EE
:10151000639A6600582363F5E80023001501E9BFCC
:1015200018A1D9BFE39A06FD5833E317C7FD3387E7
:10153000F5001433E38206FDE3D0C7FC034F070038
:10154000FA97C207C183E394D6FF3423139F860121
:10155000135F8F41E35D0FFCBD8A14B53433034F35
:10156000470054B554337823A20678AD1825FA966F
:1015700036A9050718A565BFEFE21FC52A843755B0
:101580000000411113058577AE8AEF20B07E3755F4
:10159000000013054578EF20B06C7D473307E40267
:1015A000371A002093074A30BA97C833393F631B74
:1015B0000514376500001305058CEF20B07B938779
:1015C000C1C0FC23130A4A309384C1C095CF37555C
:1015D000000013058579EF20B068F020D6852285BC
:1015E000EFF04FBCAA85814963130514376B0000E7
:1015F000982093970901C18363E2E71237650000E1
:1016000013050585EF2010779387C100FC27938988
:10161000C1009DCF375500001305C57AEF205064F7
:1016200003C6E900D6852285EFF0CFB7AA85014B26
:10163000631F0510B76B0000982093170B01C1833F
:1016400063EEE70E3765000013050585EF20907205
:1016500083C7F9009DCF375500001305057CEF20A7
:10166000306003C6F900D6852285EFF0AFB3AA85B6
:10167000014B631E050EB76B0000982093170B01FA
:10168000C18363EDE70C3765000013050585EF2086
:10169000706E83C709019DCF375500001305457D46
:1016A000EF20105C03C60901D6852285EFF08FAFCD
:1016B000AA858149631D050C376B0000982093971C
:1016C0000901C18363ECE70A37650000130505854E
:1016D000EF20506A375500001305857EEF205058E3
:1016E000154BB76B00009306E1001386C1C0D68589
:1016F0002285EF107001AA89631D05120149B76A9E
:10170000000045A8AA89AA85376500001305858AC7
:10171000EF2010554E8541016FE09FAEB387340135
:101720008C2313050B898509EF209053D1B53765BC
:1017300000001305858AEF20B052F9B5B387640124
:101740008C2313850B89050BEF209051F5B5376578
:1017500000001305858AEF20B050DDBDB38764011A
:101760008C2313850B89050BEF20904F39B7376514
:1017700000001305858AEF20B04E21BFB3873401E6
:101780008C2313050B898509EF20904D05BF376524
:1017900000001305858AEF20B04C2DBFB3872401CC
:1017A0008C23050913850A894209EF20704B1359D0
:1017B00009013C87E364F9FE3765000013050585E0
:1017C000EF20505BFD47B307F402B4201147D297D6
:1017D000636FD704F4A37D49330924033755000010
:1017E000A2851305857F8544914A52990346690075
:1017F000014AEF20F04683476900E3ED97F0834507
:101800004900A14613F6F40F2285EF10A06C01CD1C
:10181000FD14050A1545C204137AFA0FEF20D027EC
:10182000C18063E24A038504C204C180E9B7F8A31A
:101830005DB77D1BCE8513858B8A137BFB0FEF2055
:101840003042E3120BEA9309E00FE9B5EFE2BF98EB
:101850001C224111B3D7B740858B99E71304E00FE1
:10186000228541016FE07F9AFD44B3079502B714CA
:101870000020938444302E862E897400AA89BE9459
:10188000CC20EF10405E2A8409C9AA853755000094
:1018900013058566EF20D03CE1B71C87858BDDDF23
:1018A000CC20C1464A864E85EF10805F2A841DE118
:1018B000A94ACC2074004A864E85EF10C05A2A8A65
:1018C00005C1AA853755000013050569EF20503979
:1018D000528479B7AA85375500001305C5675DBFE7
:1018E0001C8705041374F40F858B81C7E31354FD23
:1018F000B5B7A947E304F4F61C86858BA5F33755E5
:101900000000CA851305456AEF209035594489BF08
:10191000EFE27F8C1C224111B3D7B740858B99E74A
:101920001304E00F228541016FE03F8EFD47B307AE
:10193000F502B71A002093844A302E86AE8991466C
:101940002A8A938A4A30BE94CC20EF10A0582A8469
:1019500015E52689130B50068345490074004E8611
:101960005285EF104050AA8415C1AA853755000052
:101970001305C56CEF20D02E26846DB7AA85375588
:1019800000001305856BEF20B02D69BF0545EF20E2
:10199000B0101C8705041374F40FC18B9DEFE31D79
:1019A00064FBFD47B307FA02D1464E865285338960
:1019B000FA0083454900AD4AEF10804E8345490047
:1019C00074004E865285EF10004A2A8401CDAA8504
:1019D000375500001305056E7DB793074006E312E7
:1019E000F4FC3DBF1C87850493F4F40FC18B99CFA1
:1019F000E39654FD1C86858B85D737550000CE8530
:101A00001305456FEF20D025554429BFA947E38929
:101A1000F4F0CDB7EFE2CFFDFD473307F502B7177E
:101A20000020938747303284B2862E86BA97CC2323
:101A3000EF10604311E91C3013F7270011E713F58D
:101A400047003335A00005056FE0CFFCEFE24FF70C
:101A50002A893765000041111305C581AE89328C92
:101A6000B68AEF2030319947B387F9027D47B71422
:101A70000020138A44302944938444305E8BB76C31
:101A800000003307E902AD07BA973E9A9385C1007B
:101A90005285EF106010AA8555E9376A00000144AD
:101AA000138DC100C94CD28BB3078D008C23130555
:101AB0000A890504EF20D01AE31894FF376A000062
:101AC00013050A85EF20102B3765000013050583E9
:101AD000EF20502A1944FD4733848902A94C376D01
:101AE0000000B307F9023E9426944C24283489055B
:101AF00093F5F50FEF10401BAA8535E55C241545DD
:101B0000194489072300FC00EF20007937650000A5
:101B100013050584EF201026FD4733848902294CE4
:101B2000EA8CB76D0000B307F9023E94269428347E
:101B30009385C1C09306E10013060040EF10E00951
:101B4000AA8571E10144138CC1C0A1A07D14138545
:101B50008C8A1374F40FEF20B0100DF813055004A5
:101B600041016FE0AFE9FD1C13058D8A93FCFC0F6A
:101B7000EF20100FE39B0CF613056004D5B7B307F5
:101B80008C008C23050413850B894204EF20500D33
:101B900041803C87E365F4FE13050A85EF20901D24
:101BA00056869385C1C01385C100034A5C00EFE0EF
:101BB0009FD983C50A00376500001305458DEF20C6
:101BC000300A3765000013054585EF20B01A9947A4
:101BD000B389F902FD4729443309F902CA99CE9421
:101BE00037690000A834D285EF10A00F35D97D14D5
:101BF000AA851374F40F1305898AEF2070067DF00F
:101C000013059004B1BF7D1C13858D8A137CFC0FD6
:101C1000EF201005E31D0CF091B7EFE26FDA130D22
:101C20002004338DA5039305A010B7170020328937
:101C3000368C8549094B8D4B3305B5026A95138D5A
:101C4000078A2A9D034AED0383441D04834AFD034A
:101C5000D28D33844D411374F40F834C1D0463FA09
:101C6000BA01338494413334800023018D046FE042
:101C7000EFD8639F3D016286930530054A85EF20CA
:101C8000807133948D0005E1850D93FDFD0FD1B773
:101C900063906D036286930590034A85EF20A06FE1
:101CA00065D53394890033449401A3008D04E9BFC2
:101CB000E39C7DFD628693057004C5B7EFE24FD3C8
:101CC000B2881308A01036869306200433880503D3
:101CD000B71700201387078A41119387078AB30635
:101CE000D602C29636970348C70383461704630299
:101CF00008040347D703D486588609477887930694
:101D0000A010130720043307E602B386D5023697E6
:101D1000BA9703C7070485476310F7021307E1006A
:101D20007400C685EF10E00CAA873E8541016FE084
:101D30006FCE54860547D9B79306F00F8147E31657
:101D4000D7FE3C8778008146EFE01FCCF1BFEFE281
:101D5000AFC7AA89375500001305C576AE8A328A07
:101D6000EF2050013755000013054578EF20406FF4
:101D7000D6854E85EFE03FF02A8B6313051E37654D
:101D800000001305058CEF20E07E9387C1C0FC2383
:101D90001384C1C095CB3755000013058579EF201A
:101DA000206C7020D2854E85EFE0DFBFAA846316D9
:101DB0000510376900001C2063E6F40E376500004B
:101DC00013050585EF20007B5286D6854E85EFF002
:101DD0000FA69387C100FC279384C10095CB37558C
:101DE00000001305C57AEF20A067F024D2854E8548
:101DF000EFE05FBB2A896315050EB76B00001C205E
:101E00006365F90C3765000013050585EF208076C2
:101E1000FC3495CB375500001305057CEF2040645A
:101E2000F034D2854E85EFE0FFB72A89631D050C9B
:101E3000B76B00001C20636DF90A376500001305BD
:101E40000585EF2020739C288DCB375500001305A6
:101E5000457DEF20E0609028D2854E85EFE09FB46D
:101E6000AA8469E5376900001C2063E6F40A376537
:101E7000000013050585EF20E06F9304A010B384E4
:101E80009A02371900201309098A0144130C20040F
:101E9000854CB38B240183C70B006361F40A5A8518
:101EA0006FE00FB6B30794008C23130509898504EE
:101EB000EF20005B93F4F40FFDBDAA8537650000A9
:101EC0001305858AEF20C05901B7B30724018C237D
:101ED00013850B890509EF20A0581379F90F05B771
:101EE000AA85376500001305858AEF2060570DB776
:101EF000B30724018C2313850B890509EF20405675
:101F00001379F90F05BFAA85376500001305858A87
:101F1000EF2000550DBFB30794008C2313050989EA
:101F20008504EF20E05393F4F40F3DBFAA85376595
:101F300000001305858AEF20A05281B7B307840300
:101F4000A697CA97B82363199701A3800704A286AE
:101F50005286D6854E859D3305041374F40F25BF34
:101F6000AA85376500001305858AEF20604F05BFFD
:101F7000EFE20FA5B7170020B714002079719387FF
:101F8000078A1389443093894430014A938444304A
:101F90003EC4376C0000B76C0000376D0000B76DB1
:101FA0000000937AFA0F5685EFE03F8F85472A8429
:101FB0006315F518B7670000D2851385078FEF20EA
:101FC000204A9547B387FA02238089005685A38269
:101FD000F900EFE0BFA92A84631A051483CB190026
:101FE0000D4B63946B0B3765000013058590EF2054
:101FF000204703C6490083C559005685893B2A847A
:102000003765000013050592EF20804555EC3765D4
:1020100000001305058CEF20E05523807901FD09B0
:1020200063030A06014A138CC1C0034709008947AC
:1020300063F6E720834719000D47834959006391F0
:10204000E72A9547B307FA02371700201307078AD4
:10205000814A3EC69307A010B387F9023E973AC45F
:102060003EC8BA8D83C70D0063FAFA1C130B200417
:10207000338B6A03C247814C3E9BB717002093877E
:10208000078A3E9B59A2054A29BF2547639AEB045C
:102090003765000013058593EF20803C83C5490018
:1020A0005685EFF06FCD2A84376500001305059241
:1020B000EF20003B11E8376500001305058CEF2089
:1020C000604B23806901A1BFD947E30AF4F4376567
:1020D0000000A2851305858AEF20803889473DA836
:1020E00013850C95EF20C03783C719002147638EF5
:1020F000E7001307F00F6386E7021D47639BE700C5
:10210000376500001305C59619A013850D96EF20BD
:10211000203513054D98EF20E0458D472380F900C9
:10212000FDBD3765000013058597D5B7D947E3088E
:10213000F5EEAA8513050C9945B7E31205EEB767CE
:102140000000D2851385079BEF2080317D4683CA2E
:10215000590081454E85EFE0AF8C1305A010338503
:10216000AA02A2471306A01081453E95EFE04F8BCF
:102170007DB5054A5DBD330D9B0183472D020347A5
:10218000ED0163E1E708B3F7E702E6861387C1C014
:102190005686CE8552852301FD029307E102EFE0CA
:1021A0005F822A8441E9014D31A8B307AC018C2339
:1021B000050DB767000013850789420DEF20402AFF
:1021C000135D0D018357E102E361FDFE37650000F9
:1021D00013050585EF20003A83472B0005476391DF
:1021E000E7048356E1026286D6854E85EFF0FFA2B2
:1021F00083472B0481CB03464900D686CE85528582
:10220000EFF0DFAB850C93FCFC0F83478B00E3E41E
:10221000FCF6D9476303F402850A93FAFA0F99B5DD
:102220000947E391E7FE0356E102D6854E85EFE0CC
:102230002F9FC9BFD9476319F50059447D09E30AA7
:102240000AF245616FD09FFB9307E002E31CF5FAA9
:10225000376500001305859CEF20C03183459D0044
:10226000528593E50508EFE0AFFE83C71D00230DFF
:102270000D002547850793F7F70FA380FD00E37353
:10228000F7F87D4681454A85EFD09FF95285EFE00A
:10229000EFFD2A841DED83459D00528593E50508D9
:1022A000EFE00FFB85472300F9002245B2471306F4
:1022B000A0108145A3800D00A302F900EFD05FF6C6
:1022C00003464900CE855285EFF07FA82A848D47CA
:1022D00009C5D947E308F4F289472300F9001DB77F
:1022E000E31E0AF42547E39BE7F49305A010B389A6
:1022F000B902B7160020938A068A138D068ACE9AF1
:1023000083C72A0203C7EA0163F0E706014BFC20FA
:10231000E376FBF29947B307FB028D46A697F833A5
:10232000631DD7349427639AE63483CDC70093079F
:10233000A0108149B387FD023EC43ECAEA973ECC55
:10234000E2479C2363FBF93293072004B387F90229
:102350005247814AB38CE7003EC89947B307FB0256
:10236000EA9CA6973EC6CDA4B3F7E702A820E909E8
:10237000138BC1C02381FA02A129A830A52103C56E
:102380009A009306E1021386C1C0B3053D01EF0038
:10239000101A2A8425FD83450B00376500001305BC
:1023A000459DA306B1028149EF20800BB76D000067
:1023B000B76C0000FC20E3FBF9F4138B1900937A4F
:1023C000FB0F1306D102D6850145EFF02FC8594700
:1023D0002A846315E5041945B389A9020547B31793
:1023E00067010347D10293C7F7FF1306A010F98FC7
:1023F000A306F1028145B3873401C8279307A010D3
:102400009D093305F5026A95EFD09FE11946814594
:1024100033853401EFD0DFE0D68969BF130540066C
:10242000EF1090671306D102D6850145EFF04FCE2D
:1024300055472A846310E50C9947B387F90205478D
:10244000A697F8B32147B8B72386570119443384B8
:1024500089026286D6850145EFF0CFDBB7670000C1
:10246000AA85269428A41385879EEF10707F0834D0
:1024700085262824852EBC3099C7370700501C3389
:1024800093F7B70F1CB3B76700001385879FEF2042
:10249000600E9947B387F902CE8501459386870080
:1024A00013869700A69626963EC4EFF02FDA2A846C
:1024B000A24771E1338BF40003478B008D46631D07
:1024C000D704CE8513858CA03AC4EF1070790346EB
:1024D000BB008345CB000145EFF07F872A8422476C
:1024E00005FD37650000A303EB00130545A3EF20AE
:1024F00060081DB78346D1020547B317670193C72C
:10250000F7FFF58FA306F1029947B387F902A69763
:10251000FC33E393E7F01DBFB76700001385C7A343
:10252000CE85EF10F07383478B002147638BE70262
:10253000636DF7001D47638DE7021945B389A90252
:102540008D47A699A383F900C1BD25476382E702A1
:102550001307F00FE393E7FEB76700001385C7A6E4
:1025600029A0B7670000138547A5EF20A000F1B7A9
:1025700013850DA6DDBFA6970947F8B3B76700001E
:10258000CE85138587A7EF10B06D79B533875C01D1
:1025900083472702742F63E6D70AB3F7D7022301D4
:1025A000F702B24788372D24B247A827252CBC3024
:1025B00099C7370700501C3393F7B70F1CB3A247D6
:1025C0009306E1021386C1C09385A701C247BE9559
:1025D000B3875C018837D695EA95EF0040752A8469
:1025E00049E9814739A83307FC000C233ECEB76781
:1025F000000013850789EF10B066F2478507C20710
:10260000C1830357E102E3E0E7FE376500001305ED
:102610000585EF10307683C72C0005476391E704EA
:102620008356E1026286CE856E85EFF00FDF83C7A9
:102630002C0481CBB247CE86EE85B0370145EFF052
:10264000EFE7850A93FAFA0F83C78C00E3E0FAF408
:10265000D9476303F402850993F9F90FD5B1094706
:10266000E391E7FE0356E102CE856E85EFD05FDB96
:10267000C9BFD947E317F5FC5944050B137BFB0F82
:1026800079B1A389A188238CB188238AC188B7072F
:102690000050F8231377F70F2388E188F833137776
:1026A000F70FA388E188D8331377F70F2389E188E0
:1026B00098331377F70FA386E188FA3B42074183EB
:1026C0002397E1889E27C207C183239BF188239D1E
:1026D000D1888280370700501C2393F7F70B1CA387
:1026E0001C3393F7B70F1CB37E3BC207C18393F72C
:1026F000F7BFC207C1837EBB8280EFD27FAF0545A3
:10270000EF10500B0145EF1070050545EF107003F9
:102710000545EF1050060545EF1090070565854506
:1027200013050580EF10407C85450565EF10C07BE3
:102730006FD05FAE85476319F504B70700501307E4
:1027400000F898A3982362076187E35D07FEA380E2
:102750000700A381070013078004D8B737170020AC
:102760001307473498CF3717002013074738D8CFBF
:10277000A38D0702238F0702130790F898A37D57B4
:10278000F8A30D47B8A38280B7070050194798A354
:102790008280370700507C23858B85C385477CA3C7
:1027A00054338147858A99CA854709C98947630691
:1027B000F50018338547058B11C389473E85828014
:1027C000B7070050C833058113451500058982807D
:1027D000370700503C331375F50793F70708C98F87
:1027E0003CB3828085476317F500EFD27FA0DD35CB
:1027F0006FD05FA2370700501C2393E707041CA388
:102800001C3393E747001CB37E3BC207C18393F799
:10281000F7BFC207C1837EBB8280EFD27F9D2A842F
:1028200001457D37453D854763EC870037070050FC
:102830001C3393E727001CB311E82D45EF10D0257A
:10284000370700501C3393F7D70F1CB30945EF101F
:10285000B024B7070050F823058B11C7D833058B78
:1028600019C30547F8A36FD0FF9A370700505C33B0
:10287000858B85CBEFD2DF971C33858B91E72A843C
:10288000813708A011E1B93FB707005098330145DF
:102890001367170098B3FA3B13674700FABB6FD072
:1028A0007F9759458280EFD2BF91B7070050A38D23
:1028B000B7024111AA84328D238FB7029359450084
:1028C000814D37090050894A394B294AA54B0D4C97
:1028D000B54C230C9902230359019306803E83478C
:1028E0006900898B81EF05452EC636C4EF1070173D
:1028F000A246B245FD16C206C182F5F2230C0902BA
:1029000083476900898B89EB1306E00F2685EFF07A
:102910005FD71304E00F19A88347790093F70704E2
:1029200091CB01462685EFF0DFD501442285410198
:102930006FD0DF8C8347790093F7F70F13F4F7001C
:10294000631A64011306E0022685EFF09FD3130497
:10295000E002E9BF631D4405631A0D001306A002DF
:102960002685EFF01FD21304A002C9B7FD576303F9
:10297000FD007D1DFD1D93FDFD0F51452EC636C486
:10298000EF10300E83476900B245858BB9C7130538
:10299000800CEF10100D83471900A246B245858BBD
:1029A00095EB55462685EFF0DFCD554441B7638F53
:1029B0007901638599018547E398F9F45DDC136437
:1029C000040222862685EFF0DFCB8DB79D8BE3973F
:1029D00087FF65B785472303F900850D93FDFD0F3C
:1029E000E3994DEF8146130600022685EFF07FC97B
:1029F0001304000225BFEFD22FFDAA89B28413056C
:102A000040062E89EF10F00599C02390040037048A
:102A10000050A147896A5EBC13860A71814513057F
:102A2000000D5135631605149147A30DF402371BB1
:102A30000020230FF40293074B38E223130B4B388B
:102A40006309040E6307090E8387070063C2070644
:102A5000CE8BC20993D90901370A0050938A0A71B3
:102A600013054006EF10E07FDE8763733401A28711
:102A7000231EFA0281470357CA036395E710834573
:102A8000EA0356864145053565E58347EA0393C762
:102A90004700230FFA028357CA031D8C420441806A
:102AA00091C48357CA039A20BA979EA055F851A0A3
:102AB000371B0020370A0050938A0A71130B4B34DE
:102AC000FD1913054006EF10C0798345BA035686F9
:102AD00013050009EFF03FDD41ED8347BA0393C7CB
:102AE0004700A30DFA0203578A00A2876376870086
:102AF00083578A00C207C1831D8C4204418081C470
:102B00009A203E979AA0014793160701C1826393CA
:102B1000D7063E9983578A00C207C18399C7835756
:102B20008A00B3F7F90091E349FCB7070050239EF0
:102B3000070213054006EF10C072B7070050DE3FD2
:102B400013050009C207C18391E3414509661306D5
:102B500006719145EFF03FD501ED370700505E3F1C
:102B6000C207C18391C71E27C207C18391C35D45B8
:102B70006FD00FE9B306EB009022B306E90005071A
:102B800090A259B7834609003307FB008507C207A7
:102B900014A30509C183C5B5EFD28FE51384018263
:102BA000A14718401CA1B71700209387473898C346
:102BB0005840AA844111D8C308211306E1002E8988
:102BC0001D3D09E9834779007A209CA03C8763F387
:102BD000E7005D4541016FD0EFE3EFD2CFDF138710
:102BE0008181B28910435843371400209307443839
:102BF000411190C3D8C336862A8A2E8936C6EFF093
:102C00009FDF29E1B2461387818172238E225D45C1
:102C100063EAC50203463900834529009307443817
:102C200022064D8EB28563F3C900CE85104358430A
:102C30008EA290C3D8C39A223686CA85FAA352853B
:102C4000EFF07FDB41016FD04FDCEFD2CFD893871D
:102C5000818203AA07003714002083A947001304C8
:102C600044384111B28413E905302320440113068E
:102C7000E100A685AA8A2322340123112401EFF062
:102C80009FD705E19C201306E10023204401232265
:102C90003401A68556857C87231124017EA0EFF0A0
:102CA0009FD541016FD06FD6EFD28FD413870183A8
:102CB0001443B717002058439387473894C3AEA3F3
:102CC000AE84D8C301468145EFF0FFD22A8419E5CE
:102CD0002685EFF0FFAF1545EF10005C22856FD021
:102CE0006FD3EFD2EFD0138781831443B71700203F
:102CF00058439387473894C3AEA3D8C30146814550
:102D0000EFF07FCF6FD00FD1EFD28FCE138701813D
:102D100014435843B717002093874738D8C3CEA32E
:102D200094C301468145EFF01FCD6FD0AFCEEFD2F7
:102D30002FCC2E848C21411132891365050901465F
:102D400036C6EFF05FB6AA84B24615E1B707005069
:102D50009227B7150020938545344206418292A2FE
:102D60004A85EF10C0641C2093C747001CA026852D
:102D700041016FD02FCAEFD2AFC7AA843715002008
:102D800041112E8413054538B285368636C6EF10BC
:102D90000062B246B70700500146D6BF0C2013E5CB
:102DA0000401EFF05FB009E51C2093C747001CA0A9
:102DB00041016FD02FC61DE9EFD28FC31388018464
:102DC000AE87B685832608003E85B717002023A26C
:102DD000D7388326480093874738D4C3D2A3162315
:102DE0003A86F6A3EFF03FC16FD0CFC21305B00F04
:102DF00082800DE9EFD2CFBF13888184AE87B6857C
:102E0000832608003E85B717002023A2D7388326E3
:102E1000480093874738D4C3D2A33A86EFF0BFBDAA
:102E20006FD04FBF1305B00F82801DE9EFD24FBCAA
:102E3000138801852E8583250800B7170020A20678
:102E400023A2B7388325480093874738D98ECCC34F
:102E5000D2A3B6A301468145EFF0FFB96FD08FBB77
:102E60001305B00F828015E9EFD28FB813878186E2
:102E7000AE87B685144358433E85B717002023A27A
:102E8000D738938747384111D8C3D2A31306E1003E
:102E9000EFF07FB641016FD0EFB71305B00F82801E
:102EA0001DE5EFD2EFB4138781852E850C4358437F
:102EB000B717002023A2B73893874738D8C3D2A3C7
:102EC000B6A301468145EFF01FB36FD0AFB4130531
:102ED000B00F82801DE5EFD2AFB1138701872E8539
:102EE0000C435843B717002023A2B73893874738BD
:102EF000D8C3D2A3B6A301468145EFF0DFAF6FD0B0
:102F00006FB11305B00F828039E1EFD2CFAC938758
:102F100001869843DC433284AE893719002023228E
:102F2000E938368613094938A2854E85B6842322AE
:102F3000F900EFF05FAC11E91C202686A2859EA067
:102F40004E852313F900EFF01FAB6FD00FAC1305C4
:102F5000B00F828001A0B707EFBE37E700E093878C
:102F600007083CC701A0EFD20FA75D71952BEF10AA
:102F7000A02C716513050520EF1060353704002083
:102F800083250408376500001305C5BDEF10404DCB
:102F9000EF00D04BAA85376500001305C5BEEF10C2
:102FA000204C376500001305C5BFEF10A05C3765E6
:102FB0000000130505C2EF10E05B37650000130544
:102FC00005C4EF10205B37650000130585C5EF10C1
:102FD000605A376500001305C5C8EF10A059832556
:102FE0000408896793870771B3D5F5022545376AC9
:102FF0000000B76A000037690000FD15C205C181F5
:10300000EFD02FF237650000130585CCEF10805606
:1030100037650000130585CDEF10C055EFF0EFEDDB
:103020000545EFF02FF1371500207D46814513054A
:103030004530EFD0EF9E3715002013062053814511
:103040001305058AEFD0CF9D37150E003922DD2BF1
:10305000EFE01FF2A1246808EFD08FDFAA844810A8
:10306000912EB3E7A40093F7F70F2A84C9C78547C9
:1030700002D6231801022309F10299C4F2473ED671
:10308000835701022318F1020DCC8357C102035765
:103090004102BA972316F102035761028357E102F6
:1030A000BA972317F1020347810283470103BA97B6
:1030B0002308F1020347910283471103D98FA30824
:1030C000F1026810EF00E06531C58315C1020316F7
:1030D000E10283461103030701039307000599E00A
:1030E0009307D0021308300519E01308D0021385A6
:1030F000CACEEF10E0360545EF10001A1387C189DC
:103100001E239306703E8507C207C18363E1F60262
:103110001EA33DBF0125034711038316E1020316D9
:10312000C102AA8513054AD2EF108033E9B72310F4
:103130000700E1284818EF002069834551042EC696
:10314000EFD00FD42AC4EFD06FDD2246B245AA8655
:10315000130589D5EF10C030E5BDEFD26F89AA8481
:10316000116579718545110502CA02CC02CE02D0E3
:1031700002D202D402D602C602C8EF00D05893078A
:103180000020FC82371401408D473ECC4C08E147BB
:10319000130504803ECEEF00102C93070040FC8204
:1031A0004C089147130504803ECE37440140EF00A0
:1031B000902A0C10B7070C001305048026D03ED4CB
:1031C00002D223160102EF001074930750137C867D
:1031D00085475C87680085473EC8EF00D0330546C9
:1031E0001305048093055052EF00507C13050480B2
:1031F0008545EF00507A37650000A685130545D850
:10320000EF10002645616FD0EF80EFC27FFE37647C
:103210000000B7440140130484DB93840480030955
:103220000400631409006FC0FFFE930500042685A7
:10323000EF00307C7DD993150901C18126850504F5
:10324000EF00307AE9BF41114AC237490140930586
:1032500050521305098022C626C4EF00307A0DC9EA
:103260009384B18A130509808020EF00107883C70A
:10327000A18A05041374F407630CF4009820B717AF
:1032800000209387073D1375F50FBA9788A380A098
:103290003244A2441249410173002030EFC2BFF30F
:1032A00037190020371400201309093D1304443C4A
:1032B0009384018A9386A18A9387B18A98229C235A
:1032C00093F7F70F6386E70E9C22CA979C239822F8
:1032D00093F7F70F05071377F70798A29386918A5C
:1032E0009822938A918A09CF05466319C70213076A
:1032F000A0056381E7029387B7F593B7170031A064
:103300001307500AE398E7FA85479CA2930750FAFF
:103310001CA04DB7094798A21CB069BF93061700BF
:1033200093F6F60F22971CA32380DA00A947E393B4
:10333000F6F88147814625473306F40010228507B9
:10334000B29693F6F60FE399E7FE10346314D604B1
:1033500054305C207830A206DD8E7C202207854523
:103360005D8F5C4030302384B18A9CC0ECA0830721
:1033700084002C204207C206376500001D8A418761
:10338000C186130585DCDCA0D0B0EF10600D238072
:103390000A000DB79387E1898E2337650000130576
:1033A00045DF8505C205C1818EA3EF10600BC5B74F
:1033B0006FC0BFE5EFC2DFE31384818A1C208DC399
:1033C0009384018A21469385018AEF00507E8547C8
:1033D00023A00400238204002383040023000400AC
:1033E0003E856FC03FE3B71702409843B706FFF032
:1033F00041111367170098C3D84337060200758F31
:10340000D8C39843B706F7FEFD16758F98C3984347
:10341000B706FCFFFD16758F98C3D843B70601FFAA
:10342000FD16758FD8C39843B70600ECFD16758F4F
:1034300098C33707FF0098C723A6070202C402C635
:103440009843C166558F98C3B716024005679C42E2
:10345000F18F3EC6A24785073EC4B24781E7A24727
:10346000E397E7FEB71702409C431397E7006357C3
:10347000070685473EC632478547631FF704B717DF
:103480000240D843B706C1FFFD16D8C3D843D8C3FE
:10349000D84313670740D8C3D843758FD8C3D843E0
:1034A000B7062900558FD8C39843B7060001558F3A
:1034B00098C3984393166700E3DD06FED843B7161A
:1034C0000240719BD8C3D84313672700D8C3214754
:1034D000DC42B18BE39EE7FE4101828002C661BF00
:1034E000371602405C42370700209146B18B130724
:1034F00007086385D700A1466388D702B7177A000B
:10350000938707201CC3B7170240DC43918393F6CF
:10351000F700B707002093870700B69794231C4352
:10352000B3D7D7001CC3828054425042C167C982BE
:10353000BD8A7D8E9387260085CABD466389D702E2
:10354000C1466389D702C54581466393B700C14729
:103550000DE63746024003260680418A15C6371617
:103560007A00130606202DA08146C947D5B78546A7
:10357000B547F9BF8146BD47E1BF3716024050420B
:103580009315E600E3DD05FC37163D0013060690B3
:10359000B387C7021CC3A5DA1C438583A5B741675F
:1035A000B73702400D0723A8E74023AA0740371783
:1035B000002023AC07401307074523AEE740371729
:1035C00000201307074923AEE74413070004239C98
:1035D000E748239EE748A38D074C0947238DE74C16
:1035E000238FE74C239E074C2388018C8280EFC2F7
:1035F0009FBE9387C18A9E23130700049384C18AC8
:10360000636FF70282201374F40F1DC49389018B3A
:1036100003A909006302090237150020CA85228622
:1036200013050545EF00B0589E20229923A02901DB
:10363000818FC207C1839EA022856FC01FBD130466
:103640000004E9B7EFC2DFBA0545EF00B016014547
:10365000EF00D0100545EF00D00E0545EF00B0118A
:103660000545EF00F0120565854513050580EF005F
:10367000B0073734024099472300F4402945EF0052
:10368000503E23000440238A018AA38A018AA3882A
:10369000018C05472389E18C23A0018C23A6018C92
:1036A00023A2018C23A4018CA38E018A238E018A7C
:1036B000239F018A239B018A239D018A238C018AEF
:1036C000A38C018AEFF0BFEDFD57A3010440230551
:1036D000F440C147A300F440930790022300F44054
:1036E000930770022301F44083470440370720000A
:1036F0003765000093E707012300F440B7E700E0D7
:1037000023A4E710130505E5EF00D06693040440F9
:103710006FC05FB003C5518B1375F50F3335A00033
:10372000828083C7518BAA8693F7F70FC1CF138787
:10373000018D102301451376F60F51E6D032B717ED
:1037400000201305F0071D8A2388C74883950600CB
:10375000938707491306F007634BB500130510F86C
:10376000130610F863C5A50013968501618690B312
:10377000839526001305F0071306F007634BB50089
:10378000130510F8130610F863C5A50013968501FC
:103790006186B0A383864600130600F86394C600D2
:1037A000930610F8B4B385471CA3B73702401147FE
:1037B000239EE74C03C7E74D05451377C70F238FBB
:1037C000E74C82800145828083A7018C1CC183A7BE
:1037D000C18C5CC183A7418C1CC583A7818C5CC54F
:1037E00083C7418B1CA983C7518B1CB983C7D18B5D
:1037F0003CA983C7C18B3CB983D7E18B5EA983D732
:10380000618B7EA983D7A18B1EAD83C7818B3CAD15
:1038100083C7918B3CBD8280411122C63734024060
:103820001304044038243C341377F70F238CE18AC7
:1038300093F7F70FA38CF18A93762700DDCA13F76D
:10384000070345C793060002631AD70093F7F703EF
:103850006381E702130710026388E706B737024067
:1038600009472385E74093870740324441017300AD
:10387000203083D7C18AC207C18385C7EFF03FD705
:1038800042054181231CA40C8347A40D93C78700E4
:10389000230DF40C8347A40D93F7C70F230DF40CED
:1038A00075BF3C3003C7418B93F70708D98F3CB0F5
:1038B0008347A40D93F7C70F93E72700230DF40C5C
:1038C000A147A30DF40C59BF8347E40D93F7C70F2D
:1038D00093E72700230FF40C8347E40D93C7870079
:1038E000230FF40C2388018C95BF231C040CA147E3
:1038F00075B793770702638E0728A947230DF40C49
:10390000A30DF40C9387C18C9843B71500209386C0
:103910000545050798C39C221383818D2300F3007E
:103920009C321386318D1CA2BE229388A18DDA228F
:103930002390F8009387418D9AA3FA22138E618D0C
:103940002310EE0003470300938505451377F70F17
:10395000A38EE18A18221384818D1377F70F238EAB
:10396000E18A03D708001385A18D42074183239F75
:10397000E18A9E231388618DC207C183239BF18A4C
:1039800083570E00C207C183239DF18A138EC18A1B
:1039900023100E000343030023A8018A13730306B8
:1039A0009387C18A1387018B6317031614222D4650
:1039B00093F6F60F6363D61819668A06130606E2B5
:1039C000B296944282861621854823900700C2064B
:1039D000C18293D58600639B150599669386C6E9D7
:1039E00014C3C94696A39623035608006377D600EE
:1039F00083560800C206C18296A31C43638F071238
:103A0000EFF0FFBE1820B7370240938707406207E8
:103A10006187635A0716420541812147239CA70C01
:103A2000238DE70C2947A38DE70C39AA094513F626
:103A3000F50F6399A5009966938686E714C39306EC
:103A400020024DB7930510026318B600996693865D
:103A5000A6E814C3A54679B7930520026319B600FA
:103A60009966938606EC14C393064003A5BF994557
:103A70006318B6009966938606F114C3A9469DB7EC
:103A80008D45E312B6F693F6F60F91E6938681879D
:103A900014C3914681BF639816019966938606EB1D
:103AA00014C3B94681B76398A6009966938646EF1A
:103AB00014C3E94605BFE398C6F299669386C6F13A
:103AC0006DBF1E2193F7F707238AF18A9387418CF4
:103AD0009843050798C3014535B783C7518B9CA10F
:103AE00005450DB71E2193F7F70FA38AF18A938737
:103AF000818C9843050798C32388018C0947B73701
:103B00000240238FE74CC1BF23800500D1BF239023
:103B100005000945C5BD1C201307000293F70706E1
:103B2000639DE7001C220D4793F7F70F638AE704B4
:103B30006361F70209476381E704B73702402D4705
:103B4000238DE74CA38DE74CB737024013070002E3
:103B500009BB2947638CE7002D47E390E7FE83D735
:103B6000080093F7F70F2389F18CB5B783D70800C6
:103B7000A183A388F18C85B783C7118D9CA28DB7D3
:103B800083C7218DE5BF239C070C2147238DE70CBC
:103B900059BD937717008DC39387018C9843050710
:103BA00098C3238A018AA38A018AA3010400EFF043
:103BB0001F9F85473CA455B938A445B901A097D1AA
:103BC000FF1F938121CC174100201301A14317252A
:103BD00000001305653F97C5FF1F9385A542138617
:103BE000018863FAC5008322050023A05500110552
:103BF0009105E3EAC5FE1385018897E5FF1F9385CC
:103C0000A58D6377B500232005001105E36DB5FE92
:103C1000FD42739002BCAD4273904280B7620000D7
:103C2000938282087390023097C2FFFF9382C23D55
:103C300093E2320073905230EFF0EFFA97F2FFFF09
:103C40009382A2327390123473002030B7F7FF1FB3
:103C500003A5477082809C4513F7070113F8F7000E
:103C600001C7D8413368E8008E2113F7F50F39C337
:103C700018418146854E3D4F930F80029302800488
:103C8000214E3396DE00B3F8C500631116039398F6
:103C9000260033131F011343F3FF3377E300B318F8
:103CA000180133E7E800639FF70550C98506E39ADA
:103CB000C6FD18C11307F00F6375B70454412146C0
:103CC000854E3D4F930F800293028004414EB3987E
:103CD000CE0033F715016392E8021317260001178F
:103CE0003313EF001343F3FFB376D3003317E80029
:103CF000D98E639DF701232A15010506E319C6FD38
:103D000054C18280E39457FA10C94DB7E39757FE28
:103D100023281501DDB703A7C18D89471021631141
:103D2000F70214318D4763EDD7003C219A0637E73F
:103D300000E09607D58F93F7F70F32972300F740EF
:103D400054410547935756003317C70089CA9387D4
:103D500007048A07B7E600E0B69798C38280938786
:103D60000706B7E600E08A07B69798C30F10000071
:103D70008280371702405C439146B18B6385D70040
:103D8000A1466382D706B7177A00938707201CC124
:103D9000371602405C423707002013070701918362
:103DA000BD8BBA9794231C41B3D7D7005CC1544252
:103DB000A1829D8ABA969422B3D6D70014C55442E4
:103DC000AD829D8A36971823B3D7E7005CC5584269
:103DD0003983937637001387418036971823B3D7FA
:103DE000E7021CC982805C435843C166C983758F52
:103DF000B7F6FF1F83A6C670BD8B89071396160101
:103E000063480600C54601466392D702C94739A8F0
:103E10008946638FD702BD46638ED702C146638E43
:103E2000D702C54601466393D700C1471DEF374708
:103E3000024003270780418B05C737177A00130715
:103E40000720B307F7021CC121D61C41858381B727
:103E500001466DBF0546B547D1BF0146BD47F9B71D
:103E600037173D0013070790E9BFB7150240D85533
:103E70009316F700D85563DF060411833D8B930634
:103E8000170037177A00130707203357D70218C1D6
:103E9000D455A182BD8A8DE295463307D7020583AA
:103EA00018C137170240585714413D8B050733D7C7
:103EB000E60218C1184171B785456394B600E5461E
:103EC000E9BFBD456396B600D1463387E602C9BF58
:103ED0008906E5BF3D8B9306170037177A00130755
:103EE00007203357D702F1B799C5371702405C4B0B
:103EF0005D8D48CB8280B7170240D84B1345F5FF44
:103F0000798DC8CB828099C5371702401C4F5D8DD3
:103F100008CF8280B7170240984F1345F5FF798D7F
:103F200088CF828099C5371702405C4F5D8D48CF9E
:103F30008280B7170240D84F1345F5FF798DC8CF5F
:103F40008280B7170240D857B70600F9FD16758F63
:103F5000D8D7D8576205598DC8D78280B717024085
:103F6000D857B70600F8FD16758FD8D7D8576E0505
:103F7000598DC8D78280B7170240D857B70600D0EE
:103F8000FD16758FD8D7D8577205598DC8D782803E
:103F900009C9371702405C57B7060040D58F5CD778
:103FA0008280B7160240DC56370700C07D17F98FB4
:103FB000DCD68280371702405C577E0586078583F2
:103FC0005CD75C575D8D48D7828037F7FF1F03278A
:103FD00047701E21914611833D8BC2077117C18323
:103FE00063E6E60237370140930607C0630ED5004B
:103FF00013070740630AE50037570140930607C0DF
:104000006304D500631AE5000967D98F373701408B
:10401000130707C06302E50437070040630EE5029B
:1040200013070740630AE50237170040930607802D
:104030006304D502130707C06300E5023737014068
:1040400013070740630AE50037570140930607C08E
:104050006304D5006318E50093F7F7F8BA21C207A7
:10406000C183D98F37170040630CE5001307074061
:104070006308E50093F7F7CFFA21C207C183D98F10
:104080001EA1DE215EB59E211EB5B7370140138704
:1040900007C0630EE50093870740630AF500B75732
:1040A0000140138707C06304E5006314F5009C25F5
:1040B0001EB985475EA982801E2189C593E7170036
:1040C0001EA18280C207C183F99BC207C183CDBFF5
:1040D0005E2501C6DD8D4EA5828093C5F5FFFD8D61
:1040E000DDBF1E294A25ED8F4205418189C76D8DAF
:1040F0003335A00082800145828093C5F5FFC2055B
:10410000C1810EA98280EFC2AF8E1629F577FD1707
:10411000F58FF621DA257971D58F1EA95625FD7701
:104120009387379FF58FD6212A842EC6D58F962563
:10413000D58FB625D58F5EA55E29C207C18393F7BB
:10414000F7CFD98F5EA96808EFF0BFC2B74701402B
:1041500093870780B245631EF402A2576547B38771
:10416000E7029841930640060A07B3D7E70233D720
:10417000D702B3F7D7021207920793872703B3D763
:10418000D702BD8BD98FC207C1831EA445616FC002
:104190006F889257E1B791C55E250967D98F5EA5F3
:1041A00082805A25F977FD17F98FD5BF13F7F50FE0
:1041B00085471583B395B7006319F7009307C500CA
:1041C000984301CED98D8CC38280894693074501DF
:1041D000E318D7FE93070501E5B793C5F5FFF98D01
:1041E000DDB793F5F51F4EA182804A211375F51FA7
:1041F00082800A216D8D3335A000828013F7F50F80
:1042000085461583B397B6006311D7025A25F98FF7
:104210001A2101454207418381CB0545A181B31590
:10422000B5006D8F3335E000828089466314D70076
:104230001A29F1BF5A29E1BFB707002083A7070851
:1042400037177A0013070720B3D7E70293F7F70F62
:104250002381F18E1307803EB387E7022390F18E0E
:104260008280B7F700E0D8438146799BD8C303C763
:10427000218E3306A70290CBD4CB98431367070156
:1042800098C398431367170298C3D843058B75DF0B
:104290009843799B98C38280B7F700E0D843814662
:1042A000799BD8C303D7018E3306A70290CBD4CB1A
:1042B00098431367070198C398431367170298C37D
:1042C000D843058B75DF9843799B98C38280EFB202
:1042D0003FF201112A84854537050200EFF09FC4A3
:1042E00085451145EFF03FC291477C82371501406B
:1042F0008D473EC44C00E147130505803EC6EFF0F4
:104300009F9522C837440040B70708000C081305E2
:1043100004403ECC02CA231E0100EFF0DFDE8545DB
:1043200013050440EFF03FE705616FB0BFEEEFB259
:104330009FEAB7440040AE89328901449384044027
:10434000634524014A856FB05FEC93050004268520
:10435000EFF03FEA7DD9B387890083850700268582
:104360000504C205C181EFF0DFE7D9BF1387818063
:104370001C43B71600209386464D3E95636BD500CF
:10438000B78600209386068063E5A60008C33E85B5
:104390008280FD57EDBF93F5F50F2A966314C50093
:1043A000014582801C21E38EB7FE0505C5BFB3C75A
:1043B000A5008D8B3307C50081E78D4763EDC700EE
:1043C000AA87637EE508942185078505A38FD7FE1C
:1043D000E3EBE7FE828093763500AA8789CA9421B1
:1043E00085078505A38FD7FE93F63700C5BF937663
:1043F000C7FF138606FE63F0C70683A3050083A2EA
:10440000450083AF850003AFC50083AE050103AE51
:10441000450103A3850183A8C5019385450223A017
:10442000770003A8C5FF23A2570023A4F70123A602
:10443000E70123A8D70123AAC70123AC670023AE55
:1044400017019387470223AE07FF75B79041910785
:10445000910523AEC7FEE3EBD7FEE3E6E7F68280E5
:1044600039713EDA2ED232D436D63AD842DC46DE24
:104470009387C18022CC804326CA06CEAA8409C471
:104480001C4C99E32285FD290C4454102686228574
:1044900036C6EF009013F2406244D244216182801C
:1044A000011126CA4AC806CE22CC4EC652C4AA84DE
:1044B0002E8901C51C4D91E3F1219C4C804499E368
:1044C0002685C92197270000938747A8631BF4021C
:1044D000C0405E24A18BB1C71C48A1C7FD59294A21
:1044E0001C4483450900FD17B1E91CC463DD0706C0
:1044F0002286A94526856920FD576308F5022945CE
:1045000035A097270000938767A66314F4008044C2
:10451000C9B797270000938767A1E31CF4FAC0444A
:104520004DBFA2852685192A55D97D55F240624492
:10453000D2444249B249224A056182801CC405091D
:1045400063D70700184C63CAE700638845011C4025
:104550001387170018C08CA361B7228626850D200B
:10456000E31035F9D9B71C401387170018C0294745
:1045700098A371B79387C180AA8588436FF05FF2D3
:10458000011122CC26CA4AC806CE4EC6AA842E895C
:10459000328401C51C4D91E3F526972700009387CF
:1045A000E79A6317F406C0401C4C1CC45E24A18B20
:1045B000C1C31C48B5CF1C4808409379F90F137943
:1045C000F90F1D8D5C486346F500A2852685692C90
:1045D00025E51C440505FD171CC41C401387170066
:1045E00018C0238037015C486388A7005E24858B50
:1045F00081CBA9476316F900A2852685B5240DED68
:10460000F24062444A85D2444249B24905618280FF
:1046100097270000938787956314F400804469B757
:104620009727000093878790E310F4F8C044ADBF4C
:10463000A2852685212041D17D59D9B74111938783
:10464000C18026C2844322C44AC006C62A892E8459
:1046500089C49C4C99E326853526972700009387CB
:10466000E78E631BF402C0400317C40093170701D1
:10467000C18393F68700ADEA93F6070195EEA5474F
:104680002320F900136707045AA47D55B240224441
:104690009244024941018280972700009387078D49
:1046A0006314F4008044C9B79727000093870788F4
:1046B000E31CF4FAC0444DBF918B9DC34C5889C98B
:1046C000930744046384F5004A85292B232A0402B6
:1046D0005E242322040093F7B7FD5EA41C481CC08F
:1046E0005E2493E787005EA41C4899EB5E241307C1
:1046F000002093F707286385E700A2854A85912962
:104700005E2413F717001DC35C4823240400B3077D
:10471000F0401CCC1C480145B5FB8317C40013F7BF
:1047200007082DD793E707045EA485B7898B014757
:1047300091E3584818C4F9BFDE25011122CC26CADE
:1047400006CE4AC84EC613F78700AA842E8479EB9A
:10475000D841634DE000B841634AE0000145F240B2
:104760006244D2444249B2490561828058547DD79F
:1047700003A904009396370123A0040063DB060617
:1047800070485E24918B99C75C401D8E5C5899C31C
:104790003C401D8E5C540C50814626858297FD5707
:1047A0005A24631DF5009440F54763E8D706B70720
:1047B00040208507B3D7D700858BA5C31C4823228B
:1047C00004001CC09317370163D80700FD5763141A
:1047D000F5009C4091E368C84C5823A02401BDDD3E
:1047E000930744046384F5002685ED2E232A0402F2
:1047F000B5B70C500146854626850297FD572A8697
:10480000E311F5F89C40B5DF75476385E70059472C
:104810006393E70423A0240191B7136707045AA404
:104820007D5535BF83A90501E38A09F203A9050077
:104830008D8B23A0350133093941014791E3D849D4
:1048400018C4E35D20F11C540C50CA864E862685A0
:1048500082976347A0005E2493E707045EA4C9B76C
:10486000AA993309A940F1BF9C49A5C3011122CCE3
:1048700006CE2A8411C51C4D81E72EC62122B245E1
:10488000971700009387876C639CF5004C408397D3
:10489000C5009DC722856244F24005616FF0DFE9E3
:1048A000971700009387876C6394F5000C44C5B795
:1048B0009717000093878767E39BF5FC4C44C1BFC3
:1048C000F2406244014505618280014582804111C8
:1048D00022C406C62A844EA572A5232005002322E1
:1048E0000500232405002322050623280500232A8A
:1048F0000500232C0500214681451305C505EFB0B1
:104900003F9297170000938787B35CD097170000FA
:104910009387A7B51CD497170000938787B95CD4F9
:10492000971700009387E7BB00D01CD8B240224401
:104930004101828097050000938545F391AA4111BA
:1049400026C2130680069384F5FFB384C4024AC0CE
:104950002E8922C406C6938544070D2E2A8401CDD4
:104960002320050023222501310508C4138684066F
:104970008145EFB0FF8A2285B24022449244024929
:10498000410182801C4DA5E7411106C622C497074C
:104990000000938767FA1CD59387C1879C43232423
:1049A000050423260504232805046314F500854720
:1049B0001CCD2A84352848C022851D2808C422859C
:1049C000052848C4484001469145EFF05FF008448F
:1049D0000546A545EFF0BFEF48440946C945EFF04D
:1049E0001FEF85471CCCB240224441018280828067
:1049F00041119387C18726C284434AC006C69C4C96
:104A000022C42A8981E72685EFF0DFF793848404A6
:104A10008044DC40FD1763D607009C40B9CF84403A
:104A2000C5BF0317C40039E7C177850723220406F1
:104A30002320040023220400232404005CC4232830
:104A40000400232A0400232C040021468145130579
:104A5000C405EFB0EFFC232A0402232C0402232414
:104A60000404232604042285B240224492440249CD
:104A7000410182801304840671BF91454A85EFF09D
:104A80001FEC88C049FDB1472320F9000144E1BF74
:104A9000797122D44AD052CC56CA5AC85EC606D6BC
:104AA00026D24ECE2A8AAE8A130485040149054BCC
:104AB000FD5B09ECB25022544A8592540259F249E6
:104AC000624AD24A424BB24B4561828004448329F8
:104AD0004400FD1963D409000040E1BFDE24637B7C
:104AE000FB008397E40063877701A6855285829A4D
:104AF0003369A90093848406E9BF1971A6DAAE84EC
:104B00008395E500A2DC86DE328463DB0500DE24CB
:104B100023A0060093F7070885E7930700401DA030
:104B2000300836C6EF007022B246E34205FE7247F7
:104B3000BD67F98F7977BA9793B717009CC2F1BF19
:104B4000930700041CC0F6506654D6540145096111
:104B50008280DE25011122CC06CE26CA4AC8898B66
:104B60002E8489CF930774041CC01CC885475CC879
:104B7000F2406244D24442490561828074003000B0
:104B8000AA84EFF09FF7A2452A892685012219E918
:104B90008317C40013F7072061FFF19B93E72700F9
:104BA0005EA4C9B797070000938707D99CD45E24F9
:104BB00008C008C893E707085EA4A2475CC8B247CC
:104BC00081CF8315E4002685EF00501B11C55E24BC
:104BD000F19B93E717005EA45E243369F900231666
:104BE000240179B7DDC183A7C5FF411122C406C6E0
:104BF00026C21384C5FF63D307003E94AA84EF0046
:104C0000301E9387418E9C4381EF2322040023A210
:104C1000818E2244B2402685924441016F00701C6F
:104C2000637EF40014403307D4006396E700984392
:104C3000DC43369718C05CC0D9BFBA87D84319C3C4
:104C4000E37DE4FE94433386D700631F8600104063
:104C5000B29694C33386D700E31DC7FA1043584376
:104C6000B29694C3D8C375B76375C400B1479CC0EE
:104C70004DB71040B306C4006316D7001443584321
:104C8000B29614C058C0C0C369B78280011126CA49
:104C900093843500F19806CE22CC4AC84EC6A104B2
:104CA000B14763F3F404B14463E2B4042A89EF002A
:104CB00030139387418E98433A8439E09387818EED
:104CC0009C4391E781454A85812723A4A18EA6852F
:104CD0004A851D2FFD5963193507B1472320F90077
:104CE0004A85EF00101029A0E3D004FCB1471CC195
:104CF0000145F2406244D2444249B2490561828092
:104D00001C40858F63CF0702AD4663F6F6001CC0DA
:104D10003E9404C031A05C406313870223A2F18E4D
:104D20004A85EF00100C1305B40093074400619905
:104D30003307F5405DDF3A94898F1CC05DBF5CC3CB
:104D4000C5B72287404095BF130435007198E30230
:104D500085FCB305A4404A85452DE31C35FBB5BF52
:104D60001C46FD171CC663DA0700184E63C5E70032
:104D7000A9476394F5006FF0BF801C422E8513870E
:104D8000170018C28CA38280011122CC26CA4AC8FF
:104D90004EC652C406CE2A89AE893284B304D600E8
:104DA0007D5A63149400014509A80C204E864A855B
:104DB000EFF01FFB0504E31645FFF2406244D244C6
:104DC0004249B249224A05618280357122CD26CB03
:104DD0004AC94EC706CF52C556C35AC1DEDEE2DC11
:104DE000E6DAAA89AE843289368409C51C4D99E376
:104DF000EFF05FB997170000938747156399F40C9C
:104E000083A44900DE24A18BEDC79C48FDC3930712
:104E10000002A304F1029307000302D22305F1026A
:104E200022C6930B5002971A0000938A2A16054C4B
:104E3000294B4A841C2099C36390770FB30C2441FB
:104E4000638E0C00E6864A86A6854E85EFF0DFF37A
:104E5000FD576302F51E9256E69636D21C20638CEF
:104E6000071CFD571309140002C802CE3ECA02CC2B
:104E7000A309010482D48345090015465685EFF045
:104E80008FD113041900C24751E913F7070109C76D
:104E900013070002A309E10413F7870009C71307EA
:104EA000B002A309E104834609001307A002638F3F
:104EB000E606F2474A8481462546182093051400E9
:104EC000130707FD6377E60AB5CA3ECE85A8971794
:104ED00000009387A7096395F40083A489001DB798
:104EE0009717000093878704E39EF4F083A4C9001A
:104EF00011BFA6854E85EFF06FF411D97D55FA40AC
:104F00006A44DA444A49BA492A4A9A4A0A4BF65B41
:104F1000665CD65C0D618280050429BF330555416E
:104F20003315AC00C98F3EC82289B1B7324793060A
:104F30004700184336C6634707023ACE1820930746
:104F4000E002631DF70418309307A002631BF70209
:104F5000B2470904138747009C433AC663C107025E
:104F60003ECA2DA83307E04093E727003ACE3EC85B
:104F7000F1B7B387670385462E84BA973DBFFD57C7
:104F8000C5B7050402CA8146814725461820930506
:104F90001400130707FD6376E606F9F20C200D46B0
:104FA00017150000130505FFEFF0EFBE11CD9717A1
:104FB0000000938727FE1D8D93070004B397A70079
:104FC000424505045D8D2AC80C20194617150000BE
:104FD000130585FC130914002304B102EFF0AFBBE5
:104FE00035C197B7FFFF9387E70195E74247B2477F
:104FF0001377071009CF91073EC69257D2973ED23A
:105000000DBDB387670385462E84BA9741B79D07C8
:10501000E19BA107D5B7780097060000938606D7D5
:1050200026860C084E8597000000E7000000FD571B
:105030002A8AE314F5FCDE2493F70704E39007ECD7
:10504000125575BD780097060000938626D42686F3
:105050000C084E85012AE1BF797156CA9C49BA8A6B
:10506000984522D426D24ECE52CC06D64AD05AC823
:105070005EC6AA892E84B284368A63D3E700BA87D3
:105080009CC00347340419C385079CC01C4093F798
:10509000070281C79C4089079CC00329040013793B
:1050A0006900631A0900130B9401FD5B5C4498408E
:1050B000998F634CF9041C408346340493F707022C
:1050C000B336D000A5EB13063404D2854E85829A00
:1050D000FD576303F5041C4011469840998B5444D6
:1050E00081446397C700B384E64063D304008144DE
:1050F0001C4418486354F700998FBE940149690411
:105100007D5B63982405014509A885465A86D285AA
:105110004E85829A631E75017D55B2502254925479
:105120000259F249624AD24A424BB24B45618280EF
:105130000509ADBF3307D40013060003A301C7045C
:105140000347540493871600A2978906A381E704B6
:105150009DBF85462286D2854E85829AE30E65FBE9
:10516000050945B7797122D426D24AD04ECE06D64B
:1051700052CC56CA5AC8B689942D930790063289E4
:10518000AA842E8413863504638DF60263E2D70663
:10519000930780056387F61863EDD700638F0620B9
:1051A00093073004638FF60A930A24042301D4047E
:1051B000D1A0930730066386F60A93074006E3956D
:1051C000F6FE1C40084393F6070893054500CDC63C
:1051D0001C410CC363D807001307D002B307F0408B
:1051E000A301E40497160000938686DB29476DA887
:1051F000930700076383F61663E5D7029307E0067B
:10520000638AF6189307F006E390F6FA0C401C4305
:1052100013F80508138547006308080608C39C4374
:105220008DA893075007E383F6FE93078007638AF0
:10523000F61293073007E399F6F61C43D0418145F7
:105240009386470014C383AA07005685EFF0AF94F6
:1052500001C53305554148C05C401CC8A301040486
:1052600061A81C43930A2404938647009C4314C3FB
:105270002301F4048547D5B793F607041C410CC3FA
:10528000B1DAC207C187B9B793F5050408C3C1D91C
:105290009E231307F0066387E60E97160000938699
:1052A00026D02947A30104044C400CC463C5050063
:1052B00008406D9908C099E3B28A89CDB28AB3F5E6
:1052C000E702FD1AB6958C212380BA00B3D5E70218
:1052D00063F0E70CA147631EF7001C40858B91CB60
:1052E00058401C4863C7E70093070003A38FFAFEEA
:1052F000FD1A3306564110C84E87CA867000A28533
:105300002685EFF07FD57D5A631D450B7D55B25044
:10531000225492540259F249624AD24A424B4561A0
:105320008280A382D50497160000938666C70C403E
:10533000084313F805081C411105630D080208C352
:1053400013F7150001C793E505020CC04147B9FBEF
:105350000C4093F5F5FD0CC0B1B79C4193E70702F3
:105360009CC193078007A302F4049716000093865C
:1053700066C475BF13F8050408C3E30308FCC2073D
:10538000C1837DBF97160000938686C1214719BF50
:10539000AE8735B794411C43CC4913F806081385F2
:1053A00047006306080008C39C438CC339A008C3A8
:1053B00093F606049C43F5DA8EA323280400B28AF0
:1053C00025BF14485686CA8526858299E30045F58F
:1053D0001C40898B8DE7B2474844E35AF5F23E857D
:1053E0003DB785465686CA8526858299E30065F3D2
:1053F000050A5C443247998FE345FAFEE9BF014A4A
:10540000930A94017D5BF5B7411122C42A842E854D
:1054100097C7FF1F23A0070C06C6EFE03FF5FD5717
:105420006319F50097C7FF1F9387C70A9C4391C371
:105430001CC0B240224441018280411122C42E840A
:105440008395E50006C6792A634905007C48AA973A
:105450007CC8B2402244410182805E247D777D1762
:10546000F98F5EA4FDB7DE25011122CC26CA4AC8F9
:105470004EC606CE93F70710AA842E843289B689C9
:1054800091C78395E500894601460D225E247D770C
:105490007D17F98F5EA48315E4006244F240CE8646
:1054A0004A86B24942492685D244056125A8411160
:1054B00022C42E848395E50006C6CD28FD575A24C4
:1054C000631AF500FD77FD17F98F5EA4B240224400
:1054D000410182808567D98F5EA468C8C5BF839566
:1054E000E50025A8411122C42A842E85B28536867E
:1054F00097C7FF1F23A007FE06C6EFE05FE3FD5737
:105500006319F50097C7FF1F9387C7FC9C4391C39E
:105510001CC0B240224441018280411122C42A842D
:105520002E8597C7FF1F23A707FA06C6F520FD574C
:105530006319F50097C7FF1F9387C7F99C4391C371
:105540001CC0B240224441018280411122C42A84FD
:105550002E85B28597C7FF1F23AE07F606C6E92042
:10556000FD576319F50097C7FF1F9387A7F69C4364
:1055700091C31CC0B240224441018280411122C427
:105580002A842E8597C7FF1F23A607F406C66D2021
:10559000FD576319F50097C7FF1F9387A7F39C4337
:1055A00091C31CC0B240224441018280411122C4F7
:1055B0002A842E85B285368697C7FF1F23AC07F055
:1055C00006C65920FD576319F50097C7FF1F93873B
:1055D00067F09C4391C31CC0B240224441018280C9
:1055E00082808280411122C42A842E85B28536862B
:1055F00097C7FF1F23A007EE06C6B928FD576319FA
:10560000F50097C7FF1F9387E7EC9C4391C31CC02D
:10561000B2402244410182809307800517C7FF1FD3
:10562000232AF7EA7D5582809307800517C7FF1F5D
:105630002322F7EA7D5582809307800517C7FF1F55
:10564000232AF7E8014582809307800517C7FF1FCB
:105650002322F7E87D5582809307800517C7FF1F37
:10566000232AF7E67D5582804855425F5045315FD9
:10567000455252313A25780D0A0000004855425FE4
:105680005045315F455252323A25780D0A000000EC
:105690004855425F5045315F455252333A25780DA7
:1056A0000A00000048756220506F72742578204F00
:1056B00075740D0A000000004855425F5045325F86
:1056C000455252313A25780D0A0000004855425F94
:1056D0005045325F455252323A25780D0A0000009B
:1056E0004855425F5045325F455252333A25780D56
:1056F0000A00000048756220506F727425782049B6
:105700006E0D0A0047657420496E746572666163A8
:1057100065257820526570446573633A2000000067
:10572000504859206D6F757365206D617020696EEA
:1057300074663A25752076616C69643A257520692E
:10574000643A253032782062746E3A2575402575AA
:1057500020783A257540257520793A2575402575BC
:105760002077683A25754025750D0A00456E756DE0
:10577000204869643A0D0000456E756D20487562D9
:105780003A0D0000416E616C797A6520436667448A
:105790006573633A20000000476574205374726992
:1057A0006E6744657363343A2000000047657420D7
:1057B000537472696E6744657363313A2000000068
:1057C00047657420537472696E6744657363323A37
:1057D0002000000047657420537472696E67446549
:1057E0007363333A200000004765742048756220D7
:1057F000446573633A200000526F6F7448756244C9
:1058000065765B2025303278205D2E62506F727491
:105810004E756D3A20253032780D0A002853312913
:1058200047657420446576446573633A200D000033
:1058300053657420446576416464723A200D00001B
:1058400047657420446576436667446573633A2010
:105850000D0000005365742043666756616C7565E2
:105860003A200D00456E756D3A0D0000656E61625F
:105870006C655F6661696C00656E61626C65640091
:1058800047657420446576446573633A20000000E0
:10589000253032782000000053657420446576413D
:1058A0006464723A20000000457272282530327814
:1058B000290D0A006765746465765F657272000081
:1058C0004F4B0D0047657420436667446573633A28
:1058D00020000000446576547970653A2025303206
:1058E000780D0A00536574204366673A2000000073
:1058F00055534220506F72742578204465762049B4
:105900006E2E0D0A00000000526F6F742044657601
:10591000696365204973204849442E200000000037
:105920004675727468657220456E756D2052657398
:10593000756C743A20000000526F6F7420446576D5
:10594000696365204973204855422E2000000000FD
:10595000526F6F7420446576696365204973200037
:1059600053746F726167652E200000005072696E7B
:105970007465722E20000000556E6B6E6F776E2E70
:1059800020000000456E6420456E756D2E0D0000F0
:10599000456E756D204661696C2077697468204595
:1059A00072726F7220436F64653A25780D0A0000A9
:1059B00055534220506F7274257820446576204FED
:1059C00075742E0D0A00000041626E6F726D616C7D
:1059D0000D00000048756220496E742044617461B6
:1059E0003A253032780D0A0044657620537065659B
:1059F000643A25780D0A0000456E756D5F48756242
:105A00004465766963650D0048554220706F727475
:105A10002578206465766963652069732048494468
:105A200021204675727468657220456E756D3A0D59
:105A30000A0000004F4B210D000000004855422095
:105A4000706F727425782064657669636520697368
:105A50002000000073746F72616765210D00000003
:105A60007072696E746572210D000000756E6B6E48
:105A70006F776E210D00000048554220506F727400
:105A8000257820456E756D20457272210D0A000043
:105A9000504859206D6F75736520726177206C6571
:105AA0006E3A2575206D61703A25752069643A2536
:105AB0003032782025303278202530327820253059
:105AC0003278202530327820253032782025303247
:105AD000782025303278202D3E2064783A256420C5
